:020000040800F2
:100000000050002089290008E11F0008E91F0008AE
:10001000F11F0008F91F000801200008000000007F
:10002000000000000000000000000000092000089F
:100030001520000800000000212000082D200008E5
:10004000D1290008D1290008D12900083920000849
:10005000D1290008D1290008D12900084D20000825
:10006000D1290008D1290008D12900085D20000805
:10007000D1290008D1290008D1290008D129000878
:10008000D1290008D1290008D1290008D129000868
:10009000D1290008D1290008D129000871200008C1
:1000A000D1290008D1290008D1290008D129000848
:1000B000D1290008D1290008D1290008D129000838
:1000C000D1290008D1290008D1290008D129000828
:1000D000D129000881200008D1290008D129000871
:1000E000D1290008D1290008D1290008000000000A
:1000F0000000000000000000000000000000000000
:0C01000000000000000000005FF808F1A3
:1001100010B5054C237833B9044B13B10448AFF341
:1001200000800123237010BD60000020000000004B
:10013000947A000808B5034B1BB103490348AFF399
:10014000008008BD0000000064000020947A0008D0
:10015000034613F8012B002AFBD1181A0138704707
:1001600081F0004102E000BF83F0004330B54FEA68
:1001700041044FEA430594EA050F08BF90EA020FD5
:100180001FBF54EA000C55EA020C7FEA645C7FEA68
:10019000655C00F0E2804FEA5454D4EB5555B8BF8B
:1001A0006D420CDD2C4480EA020281EA030382EAFC
:1001B000000083EA010180EA020281EA0303362D8E
:1001C00088BF30BD11F0004F4FEA01314FF4801C61
:1001D0004CEA113102D0404261EB410113F0004F73
:1001E0004FEA03334CEA133302D0524263EB43032A
:1001F00094EA050F00F0A780A4F10104D5F1200EC8
:100200000DDB02FA0EFC22FA05F2801841F1000122
:1002100003FA0EF2801843FA05F359410EE0A5F1F6
:1002200020050EF1200E012A03FA0EFC28BF4CF027
:10023000020C43FA05F3C01851EBE37101F00045DD
:1002400007D54FF0000EDCF1000C7EEB00006EEBEA
:100250000101B1F5801F1BD3B1F5001F0CD3490874
:100260005FEA30004FEA3C0C04F101044FEA4452CB
:1002700012F5800F80F09A80BCF1004F08BF5FEA52
:10028000500C50F1000041EB045141EA050130BD32
:100290005FEA4C0C404141EB0101013C28BFB1F544
:1002A000801FE9D291F0000F04BF01460020B1FA8F
:1002B00081F308BF2033A3F10B03B3F120020CDA62
:1002C0000C3208DD02F1140CC2F10C0201FA0CF040
:1002D00021FA02F10CE002F11402D8BFC2F1200CA5
:1002E00001FA02F120FA0CFCDCBF41EA0C0190405B
:1002F000E41AA2BF01EB0451294330BD6FEA0404A4
:100300001F3C1CDA0C340EDC04F11404C4F120028E
:1003100020FA04F001FA02F340EA030021FA04F3A0
:1003200045EA030130BDC4F10C04C4F1200220FAF7
:1003300002F001FA04F340EA0300294630BD21FA35
:1003400004F0294630BD94F0000F83F4801306BFFB
:1003500081F480110134013D4EE77FEA645C18BFEF
:100360007FEA655C29D094EA050F08BF90EA020F86
:1003700005D054EA000C04BF1946104630BD91EA7E
:10038000030F1EBF0021002030BD5FEA545C05D181
:100390004000494128BF41F0004130BD14F58004C0
:1003A0003CBF01F5801130BD01F0004545F0FE4134
:1003B00041F470014FF0000030BD7FEA645C1ABF69
:1003C000194610467FEA655C1CBF0B46024650EAA0
:1003D000013406BF52EA033591EA030F41F40021CC
:1003E00030BD00BF90F0000F04BF0021704730B552
:1003F0004FF4806404F132044FF000054FF0000127
:1004000050E700BF90F0000F04BF0021704730B5E7
:100410004FF4806404F1320410F0004548BF4042BC
:100420004FF000013EE700BF42004FEAE2014FEA11
:1004300031014FEA02701FBF12F07F4393F07F4FEC
:1004400081F06051704732F07F4208BF704793F0EF
:100450007F4F04BF41F40021704730B54FF4607402
:1004600001F0004521F000411CE700BF50EA010205
:1004700008BF704730B54FF000050AE050EA0102AE
:1004800008BF704730B511F0004502D5404261EB1E
:1004900041014FF4806404F132045FEA915C3FF45F
:1004A000D8AE4FF003025FEADC0C18BF03325FEAFC
:1004B000DC0C18BF033202EBDC02C2F1200300FAAD
:1004C00003FC20FA02F001FA03FE40EA0E0021FAD2
:1004D00002F11444BDE600BF70B54FF0FF0C4CF4C0
:1004E000E06C1CEA11541DBF1CEA135594EA0C0F72
:1004F00095EA0C0F00F0DEF82C4481EA030621EAAD
:100500004C5123EA4C5350EA013518BF52EA0335E7
:1005100041F4801143F4801338D0A0FB02CE4FF099
:100520000005E1FB02E506F00042E0FB03E54FF0C9
:100530000006E1FB03569CF0000F18BF4EF0010EC1
:10054000A4F1FF04B6F5007F64F5407404D25FEABD
:100550004E0E6D4146EB060642EAC62141EA555170
:100560004FEAC52040EA5E504FEACE2EB4F1FD0CB2
:1005700088BFBCF5E06F1ED8BEF1004F08BF5FEA30
:10058000500E50F1000041EB045170BD06F00046E2
:1005900046EA010140EA020081EA0301B4EB5C048F
:1005A000C2BFD4EB0C0541EA045170BD41F4801187
:1005B0004FF0000E013C00F3AB8014F1360FDEBFAC
:1005C000002001F0004170BDC4F10004203C35DA88
:1005D0000C341BDC04F11404C4F1200500FA05F30B
:1005E00020FA04F001FA05F240EA020001F00042AC
:1005F00021F0004110EBD37021FA04F642EB060122
:100600005EEA430E08BF20EAD37070BDC4F10C044B
:10061000C4F1200500FA04F320FA05F001FA04F20F
:1006200040EA020001F0004110EBD37041F10001FB
:100630005EEA430E08BF20EAD37070BDC4F1200506
:1006400000FA05F24EEA020E20FA04F301FA05F26E
:1006500043EA020321FA04F001F0004121FA04F216
:1006600020EA020000EBD3705EEA430E08BF20EAE6
:10067000D37070BD94F0000F0FD101F00046400020
:1006800041EB010111F4801F08BF013CF7D041EAA2
:10069000060195F0000F18BF704703F000465200A6
:1006A00043EB030313F4801F08BF013DF7D043EA77
:1006B0000603704794EA0C0F0CEA135518BF95EA2D
:1006C0000C0F0CD050EA410618BF52EA4306D1D1B4
:1006D00081EA030101F000414FF0000070BD50EAD3
:1006E000410606BF1046194652EA430619D094EA5D
:1006F0000C0F02D150EA013613D195EA0C0F05D147
:1007000052EA03361CBF104619460AD181EA03019A
:1007100001F0004141F0FE4141F470014FF0000052
:1007200070BD41F0FE4141F4780170BD70B54FF0ED
:10073000FF0C4CF4E06C1CEA11541DBF1CEA13556D
:1007400094EA0C0F95EA0C0F00F0A7F8A4EB05044F
:1007500081EA030E52EA03354FEA013100F0888046
:100760004FEA03334FF0805545EA131343EA12630F
:100770004FEA022245EA111545EA10654FEA0026C4
:100780000EF000419D4208BF964244F1FD0404F57D
:10079000407402D25B084FEA3202B61A65EB0305D9
:1007A0005B084FEA32024FF480104FF4002CB6EB96
:1007B000020E75EB030E22BFB61A754640EA0C0016
:1007C0005B084FEA3202B6EB020E75EB030E22BF56
:1007D000B61A754640EA5C005B084FEA3202B6EB97
:1007E000020E75EB030E22BFB61A754640EA9C0056
:1007F0005B084FEA3202B6EB020E75EB030E22BF26
:10080000B61A754640EADC0055EA060E18D04FEAE3
:10081000051545EA16754FEA06164FEAC30343EA83
:1008200052734FEAC2025FEA1C1CC0D111F4801F50
:100830000BD141EA00014FF000004FF0004CB6E749
:1008400011F4801F04BF01430020B4F1FD0C88BFE8
:10085000BCF5E06F3FF6AFAEB5EB030C04BFB6EBF3
:10086000020C5FEA500C50F1000041EB045170BDE6
:100870000EF0004E4EEA113114EB5C04C2BFD4EB13
:100880000C0541EA045170BD41F480114FF0000E97
:10089000013C90E645EA060E8DE60CEA135594EA13
:1008A0000C0F08BF95EA0C0F3FF43BAF94EA0C0F16
:1008B0000AD150EA01347FF434AF95EA0C0F7FF48B
:1008C00025AF104619462CE795EA0C0F06D152EADF
:1008D00003353FF4FDAE1046194622E750EA4106C3
:1008E00018BF52EA43067FF4C5AE50EA41047FF4D4
:1008F0000DAF52EA43057FF4EBAE12E74A0011D286
:1009000012F5001211D20DD56FF47873B3EB625269
:100910000ED44FEAC12343F0004343EA505323FA75
:1009200002F070474FF00000704750EA013002D1EA
:100930004FF0FF3070474FF0000070474FEA410220
:10094000B2F1E04324BFB3F5001CDCF1FE5C0DD92D
:1009500001F0004C4FEAC0024CEA5070B2F1004F77
:1009600040EB830008BF20F00100704711F0804F7A
:1009700021D113F13872BCBF01F00040704741F43F
:1009800080114FEA5252C2F11802C2F1200C10FA43
:100990000CF320FA02F018BF40F001004FEAC12327
:1009A0004FEAD32303FA0CFC40EA0C0023FA02F3CB
:1009B0004FEA4303CCE77FEA625307D150EA0133A1
:1009C0001EBF4FF0FE4040F44000704701F0004071
:1009D00040F0FE4040F40000704700BF80F000404F
:1009E00002E000BF81F0004142001FBF5FEA410307
:1009F00092EA030F7FEA226C7FEA236C6AD04FEA07
:100A00001262D2EB1363C1BFD2184140484041404B
:100A1000B8BF5B42192B88BF704710F0004F40F4FD
:100A2000000020F07F4018BF404211F0004F41F419
:100A3000000121F07F4118BF494292EA030F3FD0E5
:100A4000A2F1010241FA03FC10EB0C00C3F12003F8
:100A500001FA03F100F0004302D5494260EB400087
:100A6000B0F5000F13D3B0F1807F06D340084FEAF2
:100A7000310102F10102FE2A51D2B1F1004F40EBE7
:100A8000C25008BF20F0010040EA0300704749004F
:100A900040EB0000013A28BFB0F5000FEDD2B0FAEC
:100AA00080FCACF1080CB2EB0C0200FA0CF0AABF0F
:100AB00000EBC25052421843BCBFD04018437047AD
:100AC00092F0000F81F4000106BF80F400000132B3
:100AD000013BB5E74FEA41037FEA226C18BF7FEA8A
:100AE000236C21D092EA030F04D092F0000F08BFCC
:100AF0000846704790EA010F1CBF0020704712F0B3
:100B00007F4F04D1400028BF40F00040704712F1F1
:100B100000723CBF00F50000704700F0004343F056
:100B2000FE4040F4000070477FEA226216BF08468C
:100B30007FEA23630146420206BF5FEA412390EA4F
:100B4000010F40F4800070474FF0000304E000BF45
:100B500010F0004348BF40425FEA000C08BF7047F6
:100B600043F0964301464FF000001CE050EA0102BA
:100B700008BF70474FF000030AE000BF50EA0102CF
:100B800008BF704711F0004302D5404261EB4101BC
:100B90005FEA010C02BF84460146002043F0B643E1
:100BA00008BFA3F18053A3F50003BCFA8CF2083A06
:100BB000A3EBC25310DB01FA02FC634400FA02FC0F
:100BC000C2F12002BCF1004F20FA02F243EB020016
:100BD00008BF20F00100704702F1200201FA02FC78
:100BE000C2F1200250EA4C0021FA02F243EB02006B
:100BF00008BF20EADC7070474FF0FF0C1CEAD052AF
:100C00001EBF1CEAD15392EA0C0F93EA0C0F6FD06F
:100C10001A4480EA010C400218BF5FEA41211ED04D
:100C20004FF0006343EA501043EA5111A0FB013139
:100C30000CF00040B1F5000F3EBF490041EAD3710E
:100C40005B0040EA010062F17F02FD2A1DD8B3F18A
:100C5000004F40EBC25008BF20F00100704790F0F9
:100C6000000F0CF0004C08BF49024CEA502040EA4B
:100C700051207F3AC2BFD2F1FF0340EAC250704711
:100C800040F400004FF00003013A5DDC12F1190F4F
:100C9000DCBF00F000407047C2F10002410021FAC1
:100CA00002F1C2F1200200FA02FC5FEA310040F1D9
:100CB000000053EA4C0308BF20EADC70704792F052
:100CC000000F00F0004C02BF400010F4000F013A8A
:100CD000F9D040EA0C0093F0000F01F0004C02BF85
:100CE000490011F4000F013BF9D041EA0C018FE7F4
:100CF0000CEAD15392EA0C0F18BF93EA0C0F0AD0FA
:100D000030F0004C18BF31F0004CD8D180EA01001F
:100D100000F00040704790F0000F17BF90F0004FB8
:100D2000084691F0000F91F0004F14D092EA0C0F9A
:100D300001D142020FD193EA0C0F03D14B0218BF2D
:100D4000084608D180EA010000F0004040F0FE4073
:100D500040F40000704740F0FE4040F4400070470F
:100D60004FF0FF0C1CEAD0521EBF1CEAD15392EA8E
:100D70000C0F93EA0C0F69D0A2EB030280EA010C7E
:100D800049024FEA402037D04FF0805343EA111117
:100D900043EA10130CF000408B4238BF5B0042F175
:100DA0007D024FF4000C8B4224BF5B1A40EA0C001A
:100DB000B3EB510F24BFA3EB510340EA5C00B3EB4C
:100DC000910F24BFA3EB910340EA9C00B3EBD10F3A
:100DD00024BFA3EBD10340EADC001B0118BF5FEA8C
:100DE0001C1CE0D1FD2A3FF650AF8B4240EBC250B5
:100DF00008BF20F0010070470CF0004C4CEA502076
:100E00007F32C2BFD2F1FF0340EAC250704740F4C4
:100E100000004FF00003013A37E792F0000F00F0B6
:100E2000004C02BF400010F4000F013AF9D040EA34
:100E30000C0093F0000F01F0004C02BF490011F4C8
:100E4000000F013BF9D041EA0C0195E70CEAD153C0
:100E500092EA0C0F08D142027FF47DAF93EA0C0FA7
:100E60007FF470AF084676E793EA0C0F04D14B028B
:100E70003FF44CAF08466EE730F0004C18BF31F03D
:100E8000004CCAD130F000427FF45CAF31F0004337
:100E90007FF43CAF5FE700BF42000ED2B2F1FE4FDD
:100EA0000BD34FF09E03B3EB126209D44FEA002339
:100EB00043F0004323FA02F070474FF00000704700
:100EC00012F1610F01D1420202D14FF0FF307047A1
:100ED0004FF00000704700BF53B94AB9002908BF5E
:100EE00000281CBF4FF0FF314FF0FF3000F068B911
:100EF000ADF1080C6DE904CE00F006F8DDF804E071
:100F0000DDE9022304B070472DE9F047089D0C4647
:100F1000002B4ED194468C458646B2FA82F262D9B5
:100F20004AB1C2F12003914020FA03F30CFA02FC0B
:100F3000194300FA02FE4FEA1C47B1FBF7F407FB26
:100F400014111FFA8CF64FEA1E4343EA014304FBD7
:100F500006F199420AD91CEB030304F1FF3080F03B
:100F60001081994240F20D81023C6344591AB1FB51
:100F7000F7F007FB101100FB06F61FFA8EF343EAA9
:100F800001439E420AD91CEB030300F1FF3180F0BC
:100F9000FA809E4240F2F7806344023800219B1B96
:100FA00040EA04401DB1D3400022C5E90032BDE84B
:100FB000F0878B4205D90DB1C5E900010021084633
:100FC000F5E7B3FA83F1002946D1A34202D3904258
:100FD000C0F0EE80861A64EB03030120002DE6D0FA
:100FE000C5E90063E3E7002A40F08F80A1EB0C0421
:100FF00001214FEA1C481FFA8CF7B4FBF8F608FBF6
:10100000164407FB06F04FEA1E4343EA04439842A6
:1010100008D91CEB030306F1FF3402D2984200F218
:10102000CB8026461C1AB4FBF8F008FB104400FBEA
:1010300007F71FFA8EF343EA04439F4208D91CEBDB
:10104000030300F1FF3402D29F4200F2AE8020463B
:10105000DB1B40EA0640A5E7C1F120078B4022FADE
:1010600007FC4CEA030C24FA07F64FEA1C49B6FBCE
:10107000F9F81FFA8CFE09FB186620FA07F38C407A
:1010800000FA01FA08FB0EF01C43230C43EA064366
:10109000984202FA01F20AD91CEB030308F1FF3669
:1010A00080F0818098427ED9A8F1020863441E1A1C
:1010B000B6FBF9F309FB136603FB0EFEA4B244EA88
:1010C0000644A64508D91CEB040403F1FF3066D2A0
:1010D000A64564D9023B644443EA0840A0FB02836E
:1010E000A4EB0E049C42C6461E4650D34DD055B1CB
:1010F000BAEB0E0364EB060404FA07F7CB401F4378
:10110000CC40C5E90074002151E70CFA02FCC2F1A1
:101110002003D9404FEA1C4820FA03F300FA02FEEC
:10112000B1FBF8F008FB101194401C431FFA8CF738
:10113000230C43EA014300FB07F1994208D91CEB59
:10114000030300F1FF362CD299422AD902386344B6
:101150005B1AB3FBF8F108FB1133A4B244EA034471
:1011600001FB07F3A34208D91CEB040401F1FF368D
:1011700013D2A34211D902396444E41A41EA00416E
:101180003BE70446F2E6084608E7C245AFD2B8EBB3
:10119000020E63EB0C060138A9E73146EDE7034682
:1011A0009AE73046D4E7B04681E7634402384FE718
:1011B00006462346084611E7023E634432E700BF75
:1011C000704700BF80B584B000AF3B1D00221A609D
:1011D0005A609A60204B214A1A601F4B4FF480726C
:1011E0009A601D4B01221A731B4B00221A751A4B71
:1011F0004FF46022DA61184B00225A60164B02222B
:101200001A61154801F06CFC0346002B01D000F078
:1012100055FD04237B600123BB600723FB603B1D5E
:1012200019460D4801F07AFE0346002B01D000F06C
:1012300045FD05237B600223BB603B1D1946064824
:1012400001F06CFE0346002B01D000F037FD00BF1B
:101250001037BD4680BD00BF7C0000200024014047
:1012600080B588B000AF786007F1100300221A60E3
:101270005A609A60DA607B681B68284A934249D1B9
:10128000274B9B69264A43F400739361244B9B6967
:1012900003F40073FB60FB68214B9B69204A43F019
:1012A000040393611E4B9B6903F00403BB60BB689E
:1012B00030233B6103237B6107F110031946194872
:1012C00002F022FC184B194A1A60174B00225A6090
:1012D000154B00229A60144B8022DA60124B4FF4B7
:1012E00080721A61104B4FF480625A610E4B2022BB
:1012F0009A610D4B0022DA610B4802F063F9034654
:10130000002B01D000F0DAFC7B68074A1A62064A1B
:101310007B68536200BF2037BD4680BD002401407A
:101320000010024000080140AC000020080002400C
:1013300080B59CB000AF786039600023FB6007F196
:10134000100360220021184605F014FF07F10C007D
:101350003B687A68094905F0EDFE07F10C03184671
:10136000FEF7F6FE03469AB207F10C016423044827
:1013700005F08FF800BF7037BD4680BDB47A000815
:101380005C02002080B582B000AF0C4B5B690B4A59
:1013900043F001035361094B5B6903F001037B6078
:1013A0007B68002200210B2002F0C3F80B2002F022
:1013B000DCF800BF0837BD4680BD00BF001002400A
:1013C00080B588B000AF07F1100300221A605A60A0
:1013D0009A60DA604D4B9B694C4A43F0200393615D
:1013E0004A4B9B6903F02003FB60FB68474B9B69FA
:1013F000464A43F004039361444B9B6903F00403A2
:10140000BB60BB68414B9B69404A43F00803936152
:101410003E4B9B6903F008037B607B68012201213E
:101420003B4802F0C8FD00224FF24001384802F06C
:10143000C2FD00224FF40141364802F0BCFD80237A
:101440003B61354B7B610023BB6107F110031946FB
:10145000304802F059FB4FF201033B6101237B61ED
:101460000023BB610223FB6107F1100319462848E2
:1014700002F04AFB02233B61274B7B610223BB61E5
:1014800007F110031946224802F03EFB4FF4807327
:101490003B6101237B610023BB610223FB6107F1F8
:1014A000100319461B4802F02FFB4FF400433B6129
:1014B00001237B610123BB610323FB6107F110035F
:1014C0001946144802F020FB40233B6101237B6155
:1014D0000223BB610223FB6107F1100319460C488C
:1014E00002F012FB00220221072002F022F807205E
:1014F00002F03BF800220421172002F01AF817200E
:1015000002F033F800BF2037BD4680BD0010024016
:10151000000C0140000801400000111080B584B0AB
:1015200000AF0346FB711C4AFB7913701A4B032270
:101530005A70194B00229A70174B0022DA70164B22
:1015400000221A71144B02225A710621124800F02F
:10155000BBFB0346FB81FB89DAB20F4B9A71FB8917
:101560001B0A9BB2DAB20C4BDA7101224FF4807184
:101570000A4802F020FD4FF47A7308220649084811
:1015800004F087FF00224FF48071044802F013FD3D
:1015900000BF1037BD4680BD7C010020000801401F
:1015A0001402002080B500AF01F014FA00F03CF8FE
:1015B000FFF706FFFFF7E6FE00F032FC01F0D0F87F
:1015C000FFF700FE00F0B6FB01F0F4F801224FF443
:1015D0000051134802F0EFFC00220121104802F0F4
:1015E000EAFC642001F058FA0E4B04221A7000F055
:1015F000A5FA00224FF40051094802F0DCFC012258
:101600000121074802F0D7FC00F0CAF9642001F07C
:1016100043FA4FF4617001F03FFA00BFF6E700BFF4
:10162000000C01401001002080B594B000AF07F11C
:10163000280328220021184605F09CFD07F1140319
:1016400000221A605A609A60DA601A613B1D00221B
:101650001A605A609A60DA600923BB624FF48033E3
:10166000FB6200233B630123BB6301233B64022332
:101670007B644FF48033BB640023FB6407F12803D1
:10168000184602F0D5FC0346002B01D000F016FBF3
:101690000F237B610223BB618023FB614FF48063D6
:1016A0003B6200237B6207F114030021184602F01D
:1016B00041FF0346002B01D000F000FB03237B60B9
:1016C0004FF40073BB600023FB603B1D184603F022
:1016D000BFF80346002B01D000F0F0FA00BF5037EE
:1016E000BD4680BD80B582B000AF78600B467B8080
:1016F000144BDB781B021AB2124B1B791BB213433B
:101700001BB29AB2104B1A800E4B5B791B021AB2B5
:101710000C4B9B791BB213431BB29AB20A4B5A80F3
:10172000094B1B881B04084A528813431A46074B6F
:101730001A600F220349064804F036FF00BF08373D
:10174000BD4680BD84010020940100209801002046
:10175000140200200000000080B584B000AF022217
:101760004F49504801F094FA0023FB600023BB600E
:10177000142001F091F90023FB7111E0484B1B8804
:101780001A46FB681344FB60454B5B881A46BB68EE
:101790001344BB60012001F07FF9FB790133FB7139
:1017A000FB79632BEAD9FB683F4AA2FB03235B0961
:1017B000FB60F868FEF716FE33A3D3E90023FEF7BB
:1017C0008BFE02460B46104619464FF00002374B7F
:1017D000FEF782FE02460B46104619462CA3D3E9BB
:1017E0000023FEF7A3FF02460B46104619462AA324
:1017F000D3E90023FEF7BAFC02460B462C49C1E9A7
:101800000023BB68284AA2FB03235B09BB60BB68BB
:101810009AB2284B1A80B868FFF796F90346184623
:10182000FEF702FE18A3D3E90023FEF755FE024699
:101830000B461046194616A3D3E90023FEF776FFA0
:1018400002460B46104619464FF000021A4BFEF7AF
:101850008DFC02460B4610461946FFF76FF803460B
:10186000144A5360134B5B681846FEF7DDFD0246D1
:101870000B461249C1E900230A4801F0E7FA00BF0C
:101880001037BD4680BD00BF6666666666660A4064
:101890000000000000FEAF40B81E85EB51B8DE3FEF
:1018A000000100207C0000201F85EB51000010404B
:1018B000F00000200401002000000440F800002097
:1018C00080B500AF00F04CFF642001F0E5F80F2276
:1018D0002B492C4804F068FE01224FF480512A481D
:1018E00002F069FB4FF4E17001F0D6F80120FFF738
:1018F00015FE3C2001F0D0F8244B1B68244A93428B
:1019000002D9224B00221A60204B1B68002B21D0E9
:101910001E4B1B681846FFF717F903461D4918466A
:10192000FFF76AF903464FF08B411846FFF718FAA4
:1019300003461846FEF778FD0FA3D3E90023FEF710
:1019400013FC02460B4610461946FEF7F7FF034606
:10195000114A1360104B1B68104A936000224FF429
:101960008051094802F027FB064804F060FD00BFE3
:1019700080BD00BFAFF300806666666666664D4058
:101980008401002014020020000C01409801002076
:10199000D07E01000000C8429C010020040100200C
:1019A00080B584B000AF324B5B68314A43F480733A
:1019B000536007F10C03012219462E4803F0D8F9B1
:1019C0000023BB603B1D07F10C0212681146198011
:1019D0000233120C1A70284B1B78042B04D17B792C
:1019E0000233DBB27B7110E0234B1B78022B04D156
:1019F000BB790333DBB2BB7107E01F4B1B78082BAD
:101A000003D1BB790A33DBB2BB711A4B1B685A682E
:101A1000184B1B6822F002025A603B1D0122194636
:101A2000144803F033FB154B1B69144A43F00403BD
:101A300013610F4B1B680E4A43F0020313600C4BFB
:101A40001B680B4A43F004031360094B1B68084AE8
:101A500043F008031360064B1B68054B5B68084B9B
:101A600000225A60BFF34F8F00BF30BF00BFF9E7BD
:101A700000700040A00100201001002000ED00E0F7
:101A8000002004E080B582B000AF00F0A7FB00F0BA
:101A9000F9FF7860122000F0FDFA0346FB70FB7836
:101AA0001946122000F036FB234B00221A7000F07A
:101AB000A5FB00BF204B1B78DBB283F00103DBB238
:101AC000002B06D000F0DEFF02467B68D31A312BD4
:101AD000F0D9194B1B78DBB283F00103DBB2002B8A
:101AE00001D0002324E0122000F0D4FA0346FB705A
:101AF000FB781946122000F00DFB00F06FFBFB781D
:101B000003F00103002B06D0FB7803F00403002B45
:101B100001D000230CE0FB7803F00103002B06D179
:101B2000FB7803F00403002B01D0012300E0002325
:101B300018460837BD4680BD7801002090B585B0B5
:101B400000AFFFF709FE052000F0A6FFFFF7B8FE83
:101B5000322000F0A1FF00F063F9642000F09CFF48
:101B600000F022FD44F64A233B804CF6AB237B80F9
:101B7000334B1B78BB80334BD3E900014FF000029D
:101B8000314BFEF7A9FC02460B4610461946FEF7FC
:101B9000B5FE03469BB2FB8003212C4803F010FEE8
:101BA00003469BB23B812A4B5B682A491846FFF7E4
:101BB00023F803461846FFF76FF903469BB27B8173
:101BC000234B9B6823491846FFF716F8034618462F
:101BD000FFF762F903469BB2BB81642200211E48D5
:101BE00005F0C8FA1C4B1C463B460FCB07C42380AC
:101BF0001A4B00221A7009E0184B1B78DBB2013334
:101C0000DAB2164B1A70962000F046FFFFF73AFF43
:101C1000034683F00103DBB2002B04D00F4B1B788B
:101C2000DBB2092BE8D90E210B4800F005FD00F0CE
:101C3000CDFA0B4803F064FE00BF1437BD4690BDDB
:101C400010010020F000002000005940A0010020F9
:101C5000040100200000204114010020790100202F
:101C6000B401002080B582B000AF0346FB80FB8842
:101C7000022B11D102210A4802F086F90346012BFA
:101C80000AD1084B1B78DBB283F00103DBB2002BD7
:101C900002D0044B01221A7000BF0837BD4680BD38
:101CA000000C01407801002080B582B000AF786060
:101CB00001F077FC00BF0837BD4680BD80B400AF9F
:101CC00072B600BF00BFFDE780B485B000AF78609A
:101CD0000B467B80FF23FB73FF23BB7313E07B6802
:101CE0005A1C7A601A78BB7B5340DBB2BB600F4A48
:101CF000BB6813441A78FB7B5340BB730C4ABB6828
:101D000013441B78FB737B885A1E7A80002BE6D124
:101D1000FB7B1B021AB2BB7B1BB213431BB29BB2F1
:101D200018461437BD4680BC704700BF747B00085E
:101D3000747C000880B582B000AF3B1D00210A46CC
:101D40001A800A469A7000233B601D4B1D4A1A6098
:101D50001B4B4FF0FF325A60194B00229A60184813
:101D600002F0E2FE0346002B01D0FFF7A7FF00239D
:101D70003B7100237B710023BB713B1D012219467F
:101D80000F4802F05DFF0346002B01D0FFF796FFDE
:101D900001233B7001237B700123BB700023FB7088
:101DA0003B4601221946064803F0BAF80346002BC9
:101DB00001D0FFF783FF00BF0837BD4680BD00BFDD
:101DC000A00100200028004080B584B000AF7860FA
:101DD0007B681B680F4A934218D102F01DF90E4B25
:101DE000DB690D4A43F00063D3610B4BDB6903F001
:101DF0000063FB60FB68094B01221A60002201218D
:101E0000032001F096FB032001F0AFFB00BF103769
:101E1000BD4680BD00280040001002403C04424204
:101E200080B500AF174B184A1A60164B4FF48272F8
:101E30005A60144B00229A60124B0022DA60114B58
:101E400000221A610F4B00225A610E4B4FF40072B0
:101E50009A610C4B0022DA610A4B00221A62094B8C
:101E600000225A62074B00229A62064B0A22DA626B
:101E7000044803F0C1FC0346002B01D0FFF71EFF0E
:101E800000BF80BDB40100200030014080B58AB0A1
:101E900000AF786007F1140300221A605A609A605C
:101EA000DA607B681B68224A93423DD1214B9B69D3
:101EB000204A43F4805393611E4B9B6903F4805383
:101EC0003B613B691B4B9B691A4A43F008039361D2
:101ED000184B9B6903F00803FB60FB6828237B61B8
:101EE0000223BB6103233B6207F114031946124826
:101EF00001F00AFE10237B610023BB610023FB611C
:101F000007F1140319460C4801F0FEFD0B4B5B680A
:101F10007B627B6A43F0E0637B627B6A43F0010390
:101F20007B62064A7B6A536000BF2837BD4680BD8E
:101F30000030014000100240000C01400000014050
:101F400080B582B000AF78607B681B68084A934216
:101F500009D1084B9B69074A23F4805393613821C8
:101F6000054801F055FF00BF0837BD4680BD00BFE2
:101F70000030014000100240000C014080B485B0E8
:101F800000AF154B9B69144A43F001039361124B58
:101F90009B6903F00103BB60BB680F4BDB690E4A12
:101FA00043F08053D3610C4BDB6903F080537B60BB
:101FB0007B680A4B5B68FB60FB6823F0E063FB60B7
:101FC000FB6843F00073FB60044AFB68536000BF8A
:101FD0001437BD4680BC704700100240000001402D
:101FE00080B400AF00BFFDE780B400AF00BFFDE7E5
:101FF00080B400AF00BFFDE780B400AF00BFFDE7D5
:1020000080B400AF00BFFDE780B400AF00BFBD46A5
:1020100080BC704780B400AF00BFBD4680BC704735
:1020200080B400AF00BFBD4680BC704780B500AF34
:1020300000F016FD00BF80BD80B500AF024803F080
:102040007FFB00BF80BD00BFA001002080B500AFB6
:10205000022001F0C9FF00BF80BD000080B500AFC5
:10206000024801F01DFC00BF80BD00BFAC00002095
:1020700080B500AF802001F0B7FF00BF80BD000039
:1020800080B500AF024804F0EDFA00BF80BD00BF8C
:102090001402002080B584B000AF0346FB71FB79C9
:1020A00003F07F03DBB2FB730023BB7300224FF40A
:1020B0000041164801F07FFF07F10F014FF47A73DA
:1020C0000122134803F044FC00BF114804F046F815
:1020D0000346012BF9D107F10E014FF47A73012267
:1020E0000B4803F079FD00BF094804F037F80346B8
:1020F000012BF9D101224FF40041044801F05BFFAC
:10210000BB7B18461037BD4680BD00BF00080140AC
:10211000B401002080B584B000AF03460A46FB71CD
:102120001346BB71FB7963F07F03DBB2FB730022C4
:102130004FF40041144801F03EFF07F10F014FF446
:102140007A730122114803F003FC00BF0F4804F02A
:1021500005F80346012BF9D1B91D4FF47A7301221A
:102160000A4803F0F5FB00BF084803F0F7FF0346F9
:10217000012BF9D101224FF40041034801F01BFF6C
:1021800000BF1037BD4680BD00080140B4010020EB
:1021900080B500AF002240210A4801F00CFF322038
:1021A00000F07AFC01224021064801F004FF3220B1
:1021B00000F072FC01224FF40041034801F0FBFEE5
:1021C00000BF80BD000C01400008014080B500AF99
:1021D00080210120FFF79EFF00BF80BD80B500AFCA
:1021E00081210120FFF796FF00BF80BD80B500AFC1
:1021F00083210120FFF78EFF00BF80BD80B500AFB7
:10220000802000F0C1F987210120FFF783FF00BF84
:1022100080BD80B582B000AF0346FB71FB7963F0EF
:102220007F03DBB219460920FFF774FF00BF0837B0
:10223000BD4680BD80B582B000AF0346FB71FB791F
:10224000062B06D9124B1B6812491846FFF770F887
:102250001AE0FB79002B04D104212620FFF75AFF56
:1022600012E000212620FFF755FF0C20FFF712FF98
:1022700003465AB2FB795B015BB213435BB2DBB23C
:1022800019460C20FFF746FF0837BD4680BD00BF4A
:1022900000000020C47A000880B584B000AFC7E910
:1022A0000001D7E900234FF000004FF00001D904EE
:1022B00041EA5231D004184A4FF00003FEF70CFEF9
:1022C00002460B46C7E90223D7E902014FF000029C
:1022D0004FF00003020C42EA01420B0CD3B2194644
:1022E0000620FFF717FFD7E902014FF000024FF079
:1022F0000003020A42EA01620B0AD3B21946072020
:10230000FFF708FF3B7A19460820FFF703FF00BFDD
:102310001037BD4680BD00BF0048E80180B584B0DD
:1023200000AF78607B6841F67862934202DC00235C
:10233000FB603FE07B6842F6A002934202DC01238F
:10234000FB6037E07B6843F6F042934202DC0223F5
:10235000FB602FE07B6845F24012934202DC0323CE
:10236000FB6027E07B6847F61222934202DC0423DD
:10237000FB601FE07B684AF2E422934202DC052303
:10238000FB6017E07B684FF22442934202DC062395
:10239000FB600FE07B68124A934202DC0723FB607C
:1023A00008E07B680F4A934202DC0823FB6001E0EF
:1023B0000923FB601D20FFF76DFE03465BB203F0AF
:1023C0000F035AB2FB681B015BB213435BB2DBB273
:1023D00019461D20FFF79EFE00BF1037BD4680BD89
:1023E00048E8010090D0030080B582B000AF0346FA
:1023F000FB71FB79052B02D9FB790C2B06D9184B05
:102400001B6818491846FEF793FF25E0FB79062B59
:1024100008D1C5213120FFF77DFE0C213720FFF7C1
:1024200079FE07E0C3213120FFF774FE0A2137202F
:10243000FFF770FE1E20FFF72DFE03465BB203F090
:102440000F035AB2FB791B015BB213435BB2DBB2E1
:1024500019461E20FFF75EFE0837BD4680BD00BF4F
:1024600000000020D47A000880B582B000AF034697
:10247000FB71FB79042B02D9FB79082B06D90F4B92
:102480001B680F491846FEF753FF14E0FB79043B25
:10249000FB711D20FFF7FEFD03465BB223F00E0328
:1024A0005AB2FB795B005BB213435BB2DBB21946F5
:1024B0001D20FFF72FFE0837BD4680BD000000201D
:1024C000F07A000880B582B000AF03463960FB7136
:1024D000FB79002B0BD01D20FFF7DCFD034623F01A
:1024E0000103DBB219461D20FFF714FE10E01D208A
:1024F000FFF7D0FD034643F00103DBB219461D2070
:10250000FFF708FE3B68DBB219462220FFF702FE08
:1025100000BF0837BD4680BD80B582B000AF03461E
:10252000FB71FB79002B0BD01E20FFF7B3FD034698
:1025300043F00403DBB219461E20FFF7EBFD0AE06F
:102540001E20FFF7A7FD034623F00403DBB2194664
:102550001E20FFF7DFFD00BF0837BD4680BD80B5F8
:1025600082B000AF78607B681B12DBB21946202076
:10257000FFF7D0FD7B68DBB219462120FFF7CAFDCB
:1025800000BF0837BD4680BD80B582B000AF0346AE
:10259000FB71FB7919464020FFF7BCFD00BF0837EF
:1025A000BD4680BD0000000080B500AFFFF7F0FD24
:1025B0004220FFF76FFD03461A461D4B1A70FFF7C6
:1025C00005FE00210F20FFF7A5FD00210E20FFF7DB
:1025D000A1FD08214020FFF79DFD0020FFF72AFE06
:1025E0000D20FFF716FE10A1D1E90001FFF754FE00
:1025F0001048FFF793FE0B20FFF7F6FE0520FFF7CC
:1026000033FF0C20FFF7ABFF00210120FFF75AFF3B
:102610000120FFF781FF0020FFF7B6FFFFF7DEFD87
:1026200000BF80BDAFF30080400ECF190000000056
:102630000C02002048E8010080B584B000AF78604B
:102640003960FFF7CBFD00210D20FFF763FD00216E
:102650002220FFF75FFD0023FB600AE0FB687A6839
:1026600013441B7819460020FFF754FDFB68013323
:10267000FB60FA683B689A42F0DB3B68DBB21946C4
:102680002220FFF747FD00224FF40041154801F0DA
:1026900092FC01224FF48041124801F08CFC012091
:1026A00000F0FAF9FFF7A2FD02E00A2000F0F4F9C9
:1026B0001220FFF7EFFC034603F00803002BF4D0D1
:1026C0001220FFF7E7FC0346BB60BB68DBB219468C
:1026D0001220FFF71FFDFFF779FD00BF1037BD4641
:1026E00080BD00BF000C014080B586B000AF7860AF
:1026F000144A154BD31A7B617B693B61134B1B68F2
:10270000002B02D1114B124A1A60104B1A687B68D9
:1027100013443A699A4207D204F034FD03460C226E
:102720001A604FF0FF3309E0084B1B68FB60074B52
:102730001A687B681344054A1360FB68184618370B
:10274000BD4680BD005000200004000010020020A3
:10275000F003002080B400AF00BFBD4680BC7047CE
:1027600080B500AF114B124A1A60104B4FF416524D
:102770005A600E4B00229A600C4B0022DA600B4B21
:1027800000221A61094B0C225A61084B00229A61FF
:10279000064B0022DA61054803F0F9FD0346002BE1
:1027A00001D0FFF78BFA00BF80BD00BF14020020EC
:1027B0000038014080B500AF114B124A1A60104B2F
:1027C0004FF4E1325A600E4B00229A600C4B00220B
:1027D000DA600B4B00221A61094B0C225A61084B3C
:1027E00000229A61064B0022DA61054803F0CFFD12
:1027F0000346002B01D0FFF761FA00BF80BD00BF88
:102800005C0200200044004080B58AB000AF7860D0
:1028100007F1180300221A605A609A60DA607B6838
:102820001B683B4A93423AD13A4B9B69394A43F47D
:1028300080439361374B9B6903F480437B617B69E1
:10284000344B9B69334A43F004039361314B9B69DA
:1028500003F004033B613B694FF40073BB61022347
:10286000FB6103237B6207F1180319462A4801F034
:102870004BF94FF48063BB610023FB6100233B6293
:1028800007F118031946244801F03EF900220121FE
:10289000252000F04EFE252000F067FE34E07B6826
:1028A0001B681E4A93422FD11A4BDB69194A43F425
:1028B0000033D361174BDB6903F40033FB60FB6823
:1028C000144B9B69134A43F004039361114B9B69BA
:1028D00003F00403BB60BB680423BB610223FB61FC
:1028E00003237B6207F1180319460B4801F00CF92A
:1028F0000823BB610023FB6100233B6207F118033F
:102900001946054801F000F900BF2837BD4680BDD3
:10291000003801400010024000080140004400401F
:1029200080B582B000AF78607B681B68124A934222
:102930000ED1124B9B69114A23F4804393614FF4EB
:10294000C0610F4801F064FA252000F01CFE0EE083
:102950007B681B680B4A934209D1084BDB69074A25
:1029600023F40033D3610C21054801F051FA00BF74
:102970000837BD4680BD00BF00380140001002404E
:102980000008014000440040FFF7E4FE0B480C49FA
:102990000C4A002302E0D458C4500433C4188C42BB
:1029A000F9D3094A094C002301E013600432A24222
:1029B000FBD304F0EDFBFEF7F5FD704700000020AF
:1029C00060000020F87D000860000020F003002077
:1029D000FEE7000080B500AF084B1B68074A43F0D4
:1029E00010031360032000F099FD0F2000F008F899
:1029F000FFF7C4FA0023184680BD00BF0020024044
:102A000080B582B000AF7860124B1A68124B1B7809
:102A100019464FF47A73B3FBF1F3B2FBF3F31846A4
:102A200000F0C3FD0346002B01D001230EE07B68BC
:102A30000F2B0AD8002279684FF0FF3000F079FDA3
:102A4000064A7B681360002300E00123184608371C
:102A5000BD4680BD040000200C00002008000020BE
:102A600080B400AF054B1B781A46054B1B68134416
:102A7000034A136000BFBD4680BC70470C000020B5
:102A8000A402002080B400AF024B1B681846BD466C
:102A900080BC7047A402002080B584B000AF78608D
:102AA000FFF7F0FFB8607B68FB60FB68B3F1FF3FA6
:102AB00005D00A4B1B781A46FB681344FB6000BF25
:102AC000FFF7E0FF0246BB68D31AFA689A42F7D8CC
:102AD00000BF00BF1037BD4680BD00BF0C00002006
:102AE00080B586B000AF78600023FB7500233B61A2
:102AF0000023BB600023FB607B68002B01D1012316
:102B0000BEE07B689B68002B7B689B6A002B09D129
:102B10007B680022DA627B68002283F824207868D0
:102B2000FEF79EFB786800F04BFB0346FB757B6865
:102B30009B6A03F01003002B40F09980FB7D002B73
:102B400040F095807B689B6A23F4885323F002034E
:102B500043F002027B689A627B685A687B68DB6993
:102B60001A437B681B7B5B001343BA681343BB604B
:102B70007B689B68B3F5807F03D07B689B68012BE3
:102B800002D14FF4807300E000233A6913433B61A4
:102B90007B681B7D012B19D17B681B7B002B09D126
:102BA0007B689B69013B5A033B69134343F4006311
:102BB0003B610BE07B689B6A43F020027B689A6272
:102BC0007B68DB6A43F001027B68DA627B681B6822
:102BD0005B6823F469417B681B683A690A435A6061
:102BE0007B681B689A68284B13407A681268B9683A
:102BF0000B4393607B689B68B3F5807F03D07B6851
:102C00009B68012B04D17B681B69013B1B05FB60A2
:102C10007B681B68DB6A23F470017B681B68FA68B9
:102C20000A43DA627B681B689A68184B1340BA68DB
:102C30009A420BD17B680022DA627B689B6A23F0A0
:102C4000030343F001027B689A6218E07B689B6A89
:102C500023F0120343F010027B689A627B68DB6A00
:102C600043F001027B68DA620123FB7507E07B68B1
:102C70009B6A43F010027B689A620123FB75FB7D1F
:102C800018461837BD4680BDFDF7E1FFFE0E1FFF59
:102C900080B586B000AFF860B9607A600023FB753C
:102CA000FB681B68644A934204D0FB681B68634A54
:102CB000934206D1604B5B6803F47023002B40F015
:102CC000B380FB6893F82430012B01D10223AEE0DE
:102CD000FB68012283F82420F86800F017FA034605
:102CE000FB75FB7D002B40F09A80FB689B6A23F408
:102CF000706323F0010343F48072FB689A62FB68FF
:102D00001B684E4A934205D14B4B5B6803F470231A
:102D1000002B15D1FB689B6A23F48012FB689A6232
:102D2000FB681B685B6803F48063002B26D0FB689C
:102D30009B6A23F4405343F48052FB689A621DE07F
:102D4000FB689B6A43F48012FB689A62FB681B680D
:102D5000394A934204D0FB681B68384A93420DD12C
:102D6000354B5B6803F48063002B07D0FB689B6ADC
:102D700023F4405343F48052FB689A62FB689B6AD9
:102D800003F48053002B06D0FB68DB6A23F00602B5
:102D9000FB68DA6202E0FB680022DA62FB6800226C
:102DA00083F82420FB681B6A254A9A62FB681B6A29
:102DB000244ADA62FB681B6A234A1A63FB681B68B1
:102DC0006FF002021A60FB681B689A68FB681B6858
:102DD00042F480729A60FB68186AFB681B684C3387
:102DE0001946BA687B6800F047FCFB681B689B6863
:102DF00003F46023B3F5602F08D1FB681B689A6861
:102E0000FB681B6842F4A0029A600FE0FB681B6835
:102E10009A68FB681B6842F480129A6006E0FB68BF
:102E2000002283F8242001E00123FB75FB7D184676
:102E30001837BD4680BD00BF002401400028014076
:102E400043320008BF320008DB32000880B584B08E
:102E500000AF78600023FB737B6893F82430012B6C
:102E600001D102233AE07B68012283F824207868AC
:102E700000F0A6F90346FB73FB7B002B29D17B688E
:102E80001B689A687B681B6822F480729A607B6872
:102E90001B6A93F82130DBB2022B1AD17B681B6AC4
:102EA000184600F049FC0346FB73FB7B002B0AD15C
:102EB0007B689B6A23F4885323F0010343F00102EB
:102EC0007B689A6205E07B689B6A43F040027B68FE
:102ED0009A627B68002283F82420FB7B1846103717
:102EE000BD4680BD80B483B000AF786000BF0C37B2
:102EF000BD4680BC704780B483B000AF786000BF2F
:102F00000C37BD4680BC704780B483B000AF78609A
:102F100000BF0C37BD4680BC7047000080B485B050
:102F200000AF786039600023FB730023BB607B68CF
:102F300093F82430012B01D10223DCE07B680122CD
:102F400083F824203B685B68062B1CD87B681B68D1
:102F5000596B3B685A6813469B001344053B1F227C
:102F600002FA03F3DB4319403B6818683B685A6870
:102F700013469B001344053B00FA03F27B681B6871
:102F80000A435A633CE03B685B680C2B1CD87B68A7
:102F90001B68196B3B685A6813469B001344233B1C
:102FA0001F2202FA03F3DB4319403B6818683B68B1
:102FB0005A6813469B001344233B00FA03F27B68D4
:102FC0001B680A431A631BE07B681B68D96A3B686D
:102FD0005A6813469B001344413B1F2202FA03F335
:102FE000DB4319403B6818683B685A6813469B00EE
:102FF0001344413B00FA03F27B681B680A43DA6220
:103000003B681B68092B1CD97B681B68D9683B6827
:103010001A6813465B0013441E3B072202FA03F3AF
:10302000DB4319403B6898683B681A6813465B00AD
:1030300013441E3B00FA03F27B681B680A43DA6004
:1030400019E07B681B6819693B681A6813465B00C6
:103050001344072202FA03F3DB4319403B689868E4
:103060003B681A6813465B00134400FA03F27B685E
:103070001B680A431A613B681B68102B03D03B682E
:103080001B68112B32D17B681B681D4A934225D1E6
:103090007B681B689B6803F40003002B26D17B68C8
:1030A0001B689A687B681B6842F400029A603B6860
:1030B0001B68102B1AD1134B1B68134AA2FB032366
:1030C0009A0C13469B0013445B00BB6002E0BB6894
:1030D000013BBB60BB68002BF9D107E07B689B6AB2
:1030E00043F020027B689A620123FB737B68002215
:1030F00083F82420FB7B18461437BD4680BC7047FC
:10310000002401400400002083DE1B4380B584B00E
:1031100000AF78600023FB600023BB607B681B6806
:103120009B6803F00103012B40D07B681B689A6801
:103130007B681B6842F001029A601F4B1B681F4AA4
:10314000A2FB03239B0CBB6002E0BB68013BBB609E
:10315000BB68002BF9D1FFF795FCF8601FE0FFF783
:1031600091FC0246FB68D31A022B18D97B681B68B6
:103170009B6803F00103012B11D07B689B6A43F02D
:1031800010027B689A627B68DB6A43F001027B680D
:10319000DA627B68002283F82420012307E07B6841
:1031A0001B689B6803F00103012BD8D1002318464C
:1031B0001037BD4680BD00BF0400002083DE1B43E6
:1031C00080B584B000AF78600023FB607B681B682B
:1031D0009B6803F00103012B2ED17B681B689A6862
:1031E0007B681B6822F001029A60FFF74BFCF860D5
:1031F0001BE0FFF747FC0246FB68D31A022B14D9E9
:103200007B681B689B6803F00103012B0DD17B6871
:103210009B6A43F010027B689A627B68DB6A43F02A
:1032200001027B68DA62012307E07B681B689B6808
:1032300003F00103012BDCD0002318461037BD46F4
:1032400080BD80B584B000AF78607B685B6AFB604E
:10325000FB689B6A03F05003002B27D1FB689B6A35
:1032600043F40072FB689A62FB681B689B6803F476
:103270006023B3F5602F15D1FB681B7B002B11D1A8
:10328000FB689B6A23F48072FB689A62FB689B6A06
:1032900003F48053002B05D1FB689B6A43F00102C5
:1032A000FB689A62F868FFF71DFE04E0FB681B6A82
:1032B0001B6B7868984700BF1037BD4680BD80B54E
:1032C00084B000AF78607B685B6AFB60F868FFF7EA
:1032D00012FE00BF1037BD4680BD80B584B000AF80
:1032E00078607B685B6AFB60FB689B6A43F0400226
:1032F000FB689A62FB68DB6A43F00402FB68DA62EF
:10330000F868FFF701FE00BF1037BD4680BD000022
:1033100080B485B000AF78607B6803F00703FB6082
:103320000C4BDB68BB60BA684FF6FF031340BB6011
:10333000FB681A02BB68134343F0BF6343F40033D6
:10334000BB60044ABB68D36000BF1437BD4680BC75
:10335000704700BF00ED00E080B400AF044BDB68B5
:103360001B0A03F007031846BD4680BC704700BF28
:1033700000ED00E080B483B000AF0346FB7197F925
:103380000730002B0BDBFB7903F01F02064997F98E
:1033900007305B09012000FA02F241F8232000BF48
:1033A0000C37BD4680BC704700E100E080B483B0BC
:1033B00000AF0346FB7197F90730002B12DBFB7956
:1033C00003F01F020A4997F907305B09012000FA50
:1033D00002F2203341F82320BFF34F8F00BFBFF329
:1033E0006F8F00BF00BF0C37BD4680BC704700BF69
:1033F00000E100E080B483B000AF03463960FB71A8
:1034000097F90730002B0ADB3B68DAB20C4997F9D1
:1034100007301201D2B20B4483F800230AE03B6864
:10342000DAB20849FB7903F00F03043B1201D2B270
:103430000B441A7600BF0C37BD4680BC704700BFF6
:1034400000E100E000ED00E080B489B000AFF8607A
:10345000B9607A60FB6803F00703FB61FB69C3F1A5
:103460000703042B28BF0423BB61FB690433062B2D
:1034700002D9FB69033B00E000237B614FF0FF3280
:10348000BB6902FA03F3DA43BB681A407B699A40CE
:103490004FF0FF317B6901FA03F3D9437B680B409E
:1034A000134318462437BD4680BC704780B400AF34
:1034B000BFF34F8F00BF064BDB6803F4E0620449A3
:1034C000044B1343CB60BFF34F8F00BF00BFFDE73A
:1034D00000ED00E00400FA0580B582B000AF78602E
:1034E0007B68013BB3F1807F01D301230FE00A4ADF
:1034F0007B68013B53600F214FF0FF30FFF77AFFED
:10350000054B00229A60044B07221A6000231846DC
:103510000837BD4680BD00BF10E000E080B582B036
:1035200000AF78607868FFF7F3FE00BF0837BD464C
:1035300080BD80B586B000AF0346B9607A60FB738A
:1035400000237B61FFF708FF78617A68B9687869C2
:10355000FFF77AFF024697F90F3011461846FFF73A
:1035600049FF00BF1837BD4680BD80B582B000AFAF
:103570000346FB7197F907301846FFF7FBFE00BFC3
:103580000837BD4680BD80B582B000AF0346FB71F1
:1035900097F907301846FFF709FF00BF0837BD4607
:1035A00080BD80B500AFFFF781FF80B582B000AF6E
:1035B00078607868FFF790FF034618460837BD46E5
:1035C00080BD000080B485B000AF78600023FB6050
:1035D0007B68002B01D1012343E07B681B681A46FE
:1035E000224B1344224AA2FB03231B099A007B6847
:1035F0001A647B681F4ADA637B68022283F8212001
:103600007B681B681B68FB60FB6823F47F5323F017
:103610003003FB607B685A687B689B681A437B6851
:10362000DB681A437B681B691A437B685B691A4332
:103630007B689B691A437B68DB691343FA68134311
:10364000FB607B681B68FA681A607B6800229A63DB
:103650007B68012283F821207B68002283F82020E8
:10366000002318461437BD4680BC7047F8FFFDBFE5
:10367000CDCCCCCC0000024080B586B000AFF86065
:10368000B9607A603B600023FB75FB6893F82030DB
:10369000012B01D102234BE0FB68012283F820209B
:1036A000FB6893F82130DBB2012B3AD1FB68022290
:1036B00083F82120FB6800229A63FB681B681A6864
:1036C000FB681B6822F001021A603B687A68B968DF
:1036D000F86800F0EBF9FB68DB6A002B08D0FB68A8
:1036E0001B681A68FB681B6842F00E021A600FE044
:1036F000FB681B681A68FB681B6822F004021A60EA
:10370000FB681B681A68FB681B6842F00A021A60B3
:10371000FB681B681A68FB681B6842F001021A60AC
:1037200005E0FB68002283F820200223FB75FB7D67
:1037300018461837BD4680BD80B485B000AF7860AC
:103740000023FB737B6893F82130DBB2022B08D097
:103750007B6804229A637B68002283F8202001237F
:1037600020E07B681B681A687B681B6822F00E02E9
:103770001A607B681B681A687B681B6822F001026C
:103780001A607B681A6C7B68DB6B012101FA02F21C
:103790005A607B68012283F821207B68002283F82D
:1037A0002020FB7B18461437BD4680BC70470000C4
:1037B00080B584B000AF78600023FB737B6893F81A
:1037C0002130DBB2022B05D07B6804229A630123EF
:1037D000FB7351E07B681B681A687B681B6822F0EA
:1037E0000E021A607B681B681A687B681B6822F0EF
:1037F00001021A607B681B68224A934229D07B68C9
:103800001B68214A934222D07B681B681F4A93425F
:103810001AD07B681B681E4A934212D07B681B68D3
:103820001C4A93420AD07B681B681B4A934202D110
:103830004FF480130EE04FF080730BE04FF48033B1
:1038400008E04FF4805305E04FF4807302E010234A
:1038500000E00123114A53607B68012283F8212094
:103860007B68002283F820207B685B6B002B03D0F1
:103870007B685B6B78689847FB7B18461037BD46C2
:1038800080BD00BF080002401C0002403000024022
:1038900044000240580002406C0002400000024018
:1038A00080B584B000AF78607B68DB6B1B68FB6021
:1038B0007B681B681B68BB607B681B6C04229A409A
:1038C000FB681340002B4FD0BB6803F00403002BB0
:1038D0004AD07B681B681B6803F02003002B07D1CC
:1038E0007B681B681A687B681B6822F004021A60F8
:1038F0007B681B68664A934229D07B681B68654ACF
:10390000934222D07B681B68634A93421AD07B683B
:103910001B68624A934212D07B681B68604A9342DC
:103920000AD07B681B685F4A934202D14FF4800340
:103930000EE04FF080630BE04FF4802308E04FF47B
:10394000804305E04FF4806302E0402300E004235D
:10395000554A53607B68DB6A002B00F094807B68DB
:10396000DB6A786898478EE07B681B6C02229A407D
:10397000FB681340002B56D0BB6803F00203002BFA
:1039800051D07B681B681B6803F02003002B0BD110
:103990007B681B681A687B681B6822F00A021A6041
:1039A0007B68012283F821207B681B68384A934298
:1039B00029D07B681B68374A934222D07B681B68FA
:1039C000354A93421AD07B681B68344A934212D01E
:1039D0007B681B68324A93420AD07B681B68314A75
:1039E000934202D14FF400130EE04FF000730BE04E
:1039F0004FF4003308E04FF4005305E04FF4007338
:103A000002E0202300E00223274A53607B68002263
:103A100083F820207B689B6A002B34D07B689B6AEC
:103A2000786898472FE07B681B6C08229A40FB68F7
:103A30001340002B28D0BB6803F00803002B23D0D1
:103A40007B681B681A687B681B6822F00E021A608C
:103A50007B681A6C7B68DB6B012101FA02F25A6009
:103A60007B6801229A637B68012283F821207B68AE
:103A7000002283F820207B681B6B002B04D07B681E
:103A80001B6B7868984700BF00BF1037BD4680BDEC
:103A9000080002401C000240300002404400024086
:103AA000580002406C0002400000024080B485B023
:103AB00000AFF860B9607A603B60FB681A6CFB6825
:103AC000DB6B012101FA02F25A60FB681B683A685D
:103AD0005A60FB685B68102B08D1FB681B687A682A
:103AE0009A60FB681B68BA68DA6007E0FB681B68CD
:103AF000BA689A60FB681B687A68DA6000BF14379E
:103B0000BD4680BC7047000080B48BB000AF7860C9
:103B1000396000237B6200233B6269E101227B6AFA
:103B200002FA03F3FB613B681B68FA691340BB614F
:103B3000BA69FB699A4240F058813B685B689A4ACF
:103B400093425ED0984A934275D8984A934258D08F
:103B5000964A93426FD8964A934252D0944A9342DF
:103B600069D8944A93424CD0924A934263D8924A7D
:103B7000934246D0904A93425DD8122B2AD8122BFA
:103B800059D801A252F823F0033C0008DD3B00089D
:103B9000EF3B0008313C0008373C0008373C000888
:103BA000373C0008373C0008373C0008373C000829
:103BB000373C0008373C0008373C0008373C000819
:103BC000373C0008373C0008373C0008E53B00085C
:103BD000F93B0008794A934213D02CE03B68DB683C
:103BE0003B6229E03B68DB6804333B6224E03B68CE
:103BF000DB6808333B621FE03B68DB680C333B62E9
:103C00001AE03B689B68002B02D104233B6213E05F
:103C10003B689B68012B05D108233B627B68FA69EE
:103C20001A6109E008233B627B68FA695A6103E084
:103C300000233B6200E000BFBB69FF2B01D87B681B
:103C400001E07B6804337B61BB69FF2B02D87B6A90
:103C50009B0002E07B6A083B9B003B617B691A6822
:103C60000F213B6901FA03F3DB431A40396A3B69D0
:103C700001FA03F31A437B691A603B685B6803F03F
:103C80008053002B00F0B1804D4B9B694C4A43F0B0
:103C9000010393614A4B9B6903F00103BB60BB685E
:103CA000484A7B6A9B08023352F82330FB607B6AE8
:103CB00003F003039B000F2202FA03F3DB43FA68CD
:103CC0001340FB607B68404A934213D07B683F4AB5
:103CD00093420DD07B683E4A934207D07B683D4AB1
:103CE000934201D1032306E0042304E0022302E00F
:103CF000012300E000237A6A02F00302920093405D
:103D0000FA681343FB602F497B6A9B080233FA6809
:103D100041F823203B685B6803F48013002B06D036
:103D20002D4B9A682C49BB6913438B6006E02A4BE4
:103D30009A68BB69DB43284913408B603B685B682A
:103D400003F40013002B06D0234BDA682249BB6929
:103D50001343CB6006E0204BDA68BB69DB431E49A6
:103D60001340CB603B685B6803F40033002B06D044
:103D7000194B5A681849BB6913434B6006E0164B50
:103D80005A68BB69DB43144913404B603B685B686E
:103D900003F48033002B21D00F4B1A680E49BB6906
:103DA00013430B6021E000BF00003210000031100F
:103DB000000022100000211000001210000011105D
:103DC000001002400000014000080140000C0140CA
:103DD0000010014000140140000401400B4B1A6820
:103DE000BB69DB43094913400B607B6A01337B628B
:103DF0003B681A687B6A22FA03F3002B7FF48EAECD
:103E000000BF00BF2C37BD4680BC70470004014096
:103E100080B489B000AF786039600023FB619AE01C
:103E20000122FB6902FA03F33A681340BB61BB69E4
:103E3000002B00F08D804E4AFB699B08023352F83C
:103E400023307B61FB6903F003039B000F2202FA1E
:103E500003F37A6913407B617B68464A934213D02F
:103E60007B68454A93420DD07B68444A934207D011
:103E70007B68434A934201D1032306E0042304E014
:103E8000022302E0012300E00023FA6902F00302AA
:103E9000920093407A699A4232D13A4B1A68BB69D0
:103EA000DB43384913400B60364B5A68BB69DB4330
:103EB000344913404B60334BDA68BB69DB4331490B
:103EC0001340CB602F4B9A68BB69DB432D491340ED
:103ED0008B60FB6903F003039B000F2202FA03F3DC
:103EE0007B61234AFB699B08023352F823107B69EC
:103EF000DA431F48FB699B080A40023340F823203D
:103F0000BB69FF2B01D87B6801E07B6804333B6110
:103F1000BB69FF2B02D8FB699B0002E0FB69083BF1
:103F20009B00FB603B691A680F21FB6801FA03F3F1
:103F3000DB431A400421FB6801FA03F31A433B698F
:103F40001A607B68DA68BB69DB431A407B68DA6019
:103F5000FB690133FB613A68FB6922FA03F3002B2A
:103F60007FF45EAF00BF00BF2437BD4680BC704702
:103F70000000014000080140000C01400010014019
:103F8000001401400004014080B485B000AF7860A7
:103F90000B467B807B689A687B881340002B02D09D
:103FA0000123FB7301E00023FB73FB7B18461437EE
:103FB000BD4680BC704780B483B000AF78600B46CC
:103FC0007B8013467B707B78002B03D07A887B68DC
:103FD0001A6103E07B881A047B681A6100BF0C3702
:103FE000BD4680BC7047000080B582B000AF03467C
:103FF000FB80084B5A69FB881340002B06D0054A0A
:10400000FB885361FB881846FDF72CFE00BF08377C
:10401000BD4680BD0004014080B400AF034B0122C7
:104020001A6000BFBD4680BC704700BF20000E4232
:1040300080B586B000AF78607B68002B01D101238A
:1040400072E27B681B6803F00103002B00F087809D
:10405000924B5B6803F00C03042B0CD08F4B5B6816
:1040600003F00C03082B12D18C4B5B6803F48033F4
:10407000B3F5803F0BD1894B1B6803F40033002B51
:104080006CD07B685B68002B68D101234CE27B68B5
:104090005B68B3F5803F06D1804B1B687F4A43F4D1
:1040A000803313602EE07B685B68002B0CD17B4B68
:1040B0001B687A4A23F480331360784B1B68774A75
:1040C00023F4802313601DE07B685B68B3F5A02FA9
:1040D0000CD1724B1B68714A43F4802313606F4B01
:1040E0001B686E4A43F4803313600BE06B4B1B6814
:1040F0006A4A23F480331360684B1B68674A23F4D1
:10410000802313607B685B68002B13D0FEF7BAFC3A
:10411000386108E0FEF7B6FC02463B69D31A642B0F
:1041200001D9032300E25D4B1B6803F40033002B2D
:10413000F0D014E0FEF7A6FC386108E0FEF7A2FC20
:1041400002463B69D31A642B01D90323ECE1534B9C
:104150001B6803F40033002BF0D100E000BF7B6844
:104160001B6803F00203002B63D04C4B5B6803F029
:104170000C03002B0BD0494B5B6803F00C03082B9E
:104180001CD1464B5B6803F48033002B16D1434BA4
:104190001B6803F00203002B05D07B681B69012B11
:1041A00001D00123C0E13D4B1B6823F0F8027B687E
:1041B0005B69DB00394913430B603AE07B681B699C
:1041C000002B20D0364B01221A60FEF75BFC3861D1
:1041D00008E0FEF757FC02463B69D31A022B01D9CF
:1041E0000323A1E12D4B1B6803F00203002BF0D049
:1041F0002A4B1B6823F0F8027B685B69DB002749C8
:1042000013430B6015E0264B00221A60FEF73AFCC0
:10421000386108E0FEF736FC02463B69D31A022BF0
:1042200001D9032380E11D4B1B6803F00203002B1F
:10423000F0D17B681B6803F00803002B3AD07B6841
:104240009B69002B19D0174B01221A60FEF71AFC4C
:10425000386108E0FEF716FC02463B69D31A022BD0
:1042600001D9032360E10D4B5B6A03F00203002BCD
:10427000F0D0012000F0CEFA1CE00A4B00221A60B8
:10428000FEF700FC38610FE0FEF7FCFB02463B69DD
:10429000D31A022B08D9032346E100BF00100240C5
:1042A0000000424280044242924B5B6A03F00203E8
:1042B000002BE9D17B681B6803F00403002B00F09E
:1042C000A6800023FB758B4BDB6903F08053002B2A
:1042D0000DD1884BDB69874A43F08053D361854B0E
:1042E000DB6903F08053BB60BB680123FB75824B25
:1042F0001B6803F48073002B18D17F4B1B687E4A28
:1043000043F480731360FEF7BDFB386108E0FEF7ED
:10431000B9FB02463B69D31A642B01D9032303E19D
:10432000754B1B6803F48073002BF0D07B68DB684F
:10433000012B06D16F4B1B6A6E4A43F001031362D7
:104340002DE07B68DB68002B0CD16A4B1B6A694A45
:1043500023F001031362674B1B6A664A23F00403D0
:1043600013621CE07B68DB68052B0CD1614B1B6A78
:10437000604A43F0040313625E4B1B6A5D4A43F0DC
:10438000010313620BE05B4B1B6A5A4A23F00103E3
:104390001362584B1B6A574A23F0040313627B686D
:1043A000DB68002B15D0FEF76DFB38610AE0FEF7E5
:1043B00069FB02463B69D31A41F28832934201D924
:1043C0000323B1E04B4B1B6A03F00203002BEED03A
:1043D00014E0FEF757FB38610AE0FEF753FB024694
:1043E0003B69D31A41F28832934201D903239BE0FF
:1043F000404B1B6A03F00203002BEED1FB7D012B27
:1044000005D13C4BDB693B4A23F08053D3617B6889
:10441000DB69002B00F08780364B5B6803F00C03F0
:10442000082B61D07B68DB69022B46D1334B00221D
:104430001A60FEF727FB386108E0FEF723FB02460F
:104440003B69D31A022B01D903236DE0294B1B686A
:1044500003F00073002BF0D17B681B6AB3F5803F3B
:1044600008D1244B5B6823F400327B689B682149A8
:1044700013434B601F4B5B6823F474127B68196A0B
:104480007B685B6A0B431B4913434B601B4B012248
:104490001A60FEF7F7FA386108E0FEF7F3FA024611
:1044A0003B69D31A022B01D903233DE0114B1B6852
:1044B00003F00073002BF0D035E0104B00221A609F
:1044C000FEF7E0FA386108E0FEF7DCFA02463B69E5
:1044D000D31A022B01D9032326E0064B1B6803F0F5
:1044E0000073002BF0D11EE07B68DB69012B07D144
:1044F000012319E0001002400070004060004242B9
:104500000B4B5B68FB60FB6803F480327B681B6AC3
:104510009A4206D1FB6803F470127B685B6A9A4288
:1045200001D0012300E0002318461837BD4680BDA6
:104530000010024080B584B000AF786039607B68BD
:10454000002B01D10123D0E06A4B1B6803F0070365
:104550003A689A4210D9674B1B6823F007026549F5
:104560003B6813430B60634B1B6803F007033A6817
:104570009A4201D00123B8E07B681B6803F0020374
:10458000002B20D07B681B6803F00403002B05D0B0
:10459000594B5B68584A43F4E06353607B681B687F
:1045A00003F00803002B05D0534B5B68524A43F4D9
:1045B00060535360504B5B6823F0F0027B689B684C
:1045C0004D4913434B607B681B6803F00103002BCC
:1045D00040D07B685B68012B07D1474B1B6803F415
:1045E0000033002B15D101237FE07B685B68022B31
:1045F00007D1414B1B6803F00073002B09D1012345
:1046000073E03D4B1B6803F00203002B01D1012333
:104610006BE0394B5B6823F003027B685B683649CB
:1046200013434B60FEF72EFAF8600AE0FEF72AFA11
:104630000246FB68D31A41F28832934201D9032320
:1046400053E02D4B5B6803F00C027B685B689B00BA
:104650009A42EBD1274B1B6803F007033A689A4252
:1046600010D2244B1B6823F0070222493B681343F6
:104670000B60204B1B6803F007033A689A4201D095
:10468000012332E07B681B6803F00403002B08D091
:10469000194B5B6823F4E0627B68DB6816491343BF
:1046A0004B607B681B6803F00803002B09D0124B9A
:1046B0005B6823F460527B681B69DB000E4913437F
:1046C0004B6000F021F802460B4B5B681B0903F0BE
:1046D0000F030A49CB5C22FA03F3094A1360094B22
:1046E0001B681846FEF78CF9002318461037BD46A4
:1046F00080BD00BF0020024000100240747D000811
:10470000040000200800002080B487B000AF002320
:10471000FB600023BB6000237B6100237B600023E0
:104720003B611E4B5B68FB60FB6803F00C03042BD2
:1047300002D0082B03D027E0194B3B6127E0FB6830
:104740009B0C03F00F03174AD35C7B60FB6803F4F8
:104750008033002B10D0114B5B685B0C03F001031E
:10476000114AD35CBB607B680D4A03FB02F2BB6855
:10477000B2FBF3F37B6104E07B680C4A02FB03F3BA
:104780007B617B693B6102E0054B3B6100BF3B699C
:1047900018461C37BD4680BC704700BF0010024061
:1047A00000127A008C7D00089C7D000800093D0005
:1047B00080B400AF024B1B681846BD4680BC7047F2
:1047C0000400002080B500AFFFF7F2FF0246054B62
:1047D0005B681B0A03F007030349CB5C22FA03F36F
:1047E000184680BD00100240847D000880B500AFEF
:1047F000FFF7DEFF0246054B5B68DB0A03F00703A9
:104800000349CB5C22FA03F3184680BD0010024036
:10481000847D000880B485B000AF78600A4B1B68C7
:104820000A4AA2FB03235B0A7A6802FB03F3FB60DC
:1048300000BFFB685A1EFA60002BF9D100BF00BF11
:104840001437BD4680BC704704000020D34D621071
:1048500080B586B000AF786000233B610023FB6029
:104860007B681B6803F00103002B7DD00023FB75E0
:104870004F4BDB6903F08053002B0DD14C4BDB69B0
:104880004B4A43F08053D361494BDB6903F08053BB
:10489000BB60BB680123FB75464B1B6803F4807348
:1048A000002B18D1434B1B68424A43F480731360BA
:1048B000FEF7E8F8386108E0FEF7E4F802463B69E5
:1048C000D31A642B01D903236DE03A4B1B6803F420
:1048D0008073002BF0D0364B1B6A03F44073FB60EF
:1048E000FB68002B2ED07B685B6803F44073FA688A
:1048F0009A4227D02E4B1B6A23F44073FB602E4B49
:1049000001221A602C4B00221A60294AFB681362AC
:10491000FB6803F00103002B14D0FEF7B3F83861F5
:104920000AE0FEF7AFF802463B69D31A41F288323B
:10493000934201D9032336E01D4B1B6A03F00203A7
:10494000002BEED01A4B1B6A23F440727B685B6825
:10495000174913430B62FB7D012B05D1144BDB6917
:10496000134A23F08053D3617B681B6803F0020372
:10497000002B08D00E4B5B6823F440427B689B6899
:104980000B4913434B607B681B6803F01003002B3B
:1049900008D0074B5B6823F480027B68DB6804491E
:1049A00013434B60002318461837BD4680BD00BF37
:1049B00000100240007000404004424280B588B0C0
:1049C00000AF786000237B610023FB6100233B6123
:1049D0000023FB600023BB617B68102B0AD07B683F
:1049E000102B00F28A807B68012B45D07B68022B5C
:1049F00075D082E0464B5B68FB60454B1B6803F05B
:104A00008073002B7BD0FB689B0C03F00F03414AA3
:104A1000D35C3B61FB6803F48033002B15D03C4B27
:104A20005B685B0C03F001033B4AD35C7B61FB6872
:104A300003F48033002B0DD0384A7B69B2FBF3F2CC
:104A40003B6902FB03F3FB6104E03B69344A02FB70
:104A500003F3FB612E4B5B6803F48003B3F5800F17
:104A600002D1FB69BB614AE0FB695B002D4AA2FBF6
:104A700003235B08BB6142E0254B1B6AFB60FB68BC
:104A800003F44073B3F5807F08D1FB6803F00203A1
:104A9000002B03D04FF40043BB611FE0FB6803F41D
:104AA0004073B3F5007F09D1194B5B6A03F0020331
:104AB000002B03D049F64043BB610FE0FB6803F4D1
:104AC0004073B3F5407F1CD1114B1B6803F40033D6
:104AD000002B16D04FF22443BB6112E011E0FFF728
:104AE00085FE02460A4B5B689B0B03F00303013310
:104AF0005B00B2FBF3F3BB6104E000BF02E000BF68
:104B000000E000BFBB6918462037BD4680BD00BF2E
:104B100000100240A07D0008B07D000800127A005D
:104B200000093D00ABAAAAAA80B584B000AF7860A6
:104B30000023FB607B68002B01D101237AE07B68B6
:104B40005B7CDBB2002B05D17B6800221A7478688D
:104B5000FDF73AF97B6802225A74786800F04EFB40
:104B60000346002B04D07B6804225A74012361E0C1
:104B7000786800F007FC0346002B04D07B68042211
:104B80005A74012356E07B681B685A687B681B686F
:104B900022F007025A607B689B68002B05D0274BE8
:104BA0001B6B264A23F001031363244BDB6A23F4B7
:104BB00060727B689B6821491343CB627B685B68AA
:104BC000B3F1FF3F03D07B685B68FB600EE0012020
:104BD000FFF7F4FEF860FB68002B04D17B68042229
:104BE0005A74012326E0FB68013BFB60FB681A0C4A
:104BF0007B681B6802F00F029A607B681B68FA688A
:104C000092B2DA60786800F0E5FB0346002B04D02E
:104C10007B6804225A7401230CE07B680022DA735B
:104C20007B6801225A737B6801229A737B68012298
:104C30005A74002318461037BD4680BD006C0040F2
:104C400090B587B000AFF860B9607A6000237B61EF
:104C500000233B61FB68002B02D0BB68002B01D115
:104C6000012380E0FB681B7C012B01D102237AE049
:104C7000FB6801221A74FB6802225A747B68002BBD
:104C800013D1BB681B781A464FF4616303FB02F231
:104C9000BB685B7819460B461B015B1A9B001344EB
:104CA000BA68927813447B611EE0BB681B78184693
:104CB00000F0D5FB03461A464FF4616303FB02F490
:104CC000BB685B78184600F0CAFB03461A461346D9
:104CD0001B019B1A9B001C44BB689B78184600F084
:104CE000BEFB034623447B617969F86800F0E3FA70
:104CF0000346002B07D0FB6804225A74FB6800228D
:104D00001A7401232FE0FB681B685A68FB681B6854
:104D100022F005025A60F86800F0F4FA38613B6945
:104D2000B3F1FF3F18D03A697B699A4214D23B69CC
:104D300003F5A83303F5C0733B613969F86800F0E7
:104D4000FAFA0346002B07D0FB6804225A74FB686A
:104D500000221A74012306E0FB6801225A74FB68E2
:104D600000221A74002318461C37BD4690BD00006F
:104D700080B588B000AFF860B9607A600023BB618D
:104D80000023FB6100237B6100233B61FB68002B58
:104D900002D0BB68002B01D10123B5E0FB681B6882
:104DA0005B6803F00403002B01D00123ACE0F8683A
:104DB00000F051FAB861BB69554AA2FB0323DB0A34
:104DC0003B61BA69524BA3FB0213DB0A4FF46161EA
:104DD00001FB03F3D31A4F4AA2FB03235B09DAB2A8
:104DE000BB685A70BB694A4AA2FB0312D20A4FF44D
:104DF000616101FB02F29A1A464BA3FB02135909A7
:104E00000B461B015B1A9B00D11ACAB2BB689A7091
:104E10003B69172B55D93B693F4AA2FB03231B096A
:104E20007B6139693C4BA3FB01231A0913465B00E4
:104E30001344DB00CA1AD2B2BB681A70F86800F0DB
:104E400061FAF861FB69B3F1FF3F08D0FA69BB6909
:104E50009A4204D9FA69BB69D31AFB6102E04FF0A8
:104E6000FF33FB617B692D4A02FB03F3BA69D31A56
:104E7000BB61B969F86800F01EFA0346002B01D047
:104E8000012341E0FB69B3F1FF3F0CD0FA69BB6934
:104E90001344FB61F969F86800F04DFA0346002BF2
:104EA0000AD0012330E0F969F86800F044FA0346BB
:104EB000002B01D0012327E07969F86800F0ECFAB3
:104EC00003E03B69DAB2BB681A707B68002B1AD02A
:104ED000BB681B78184600F0A5FA03461A46BB6863
:104EE0001A70BB685B78184600F09CFA03461A46B5
:104EF000BB685A70BB689B78184600F093FA03466B
:104F00001A46BB689A70002318462037BD4680BDFC
:104F1000C5B3A29189888888ABAAAAAA805101004A
:104F200080B588B000AFF860B9607A600023FB619B
:104F30000023BB6100237B61FB68002B02D0BB68B0
:104F4000002B01D1012397E0FB681B7C012B01D1D1
:104F5000022391E0FB6801221A74FB6802225A7452
:104F60007B68002B0CD1BB68DA78FB68DA73BB680E
:104F70005A78FB685A73BB689A78FB689A731AE090
:104F8000BB68DB78184600F06AFA03461A46FB68ED
:104F9000DA73BB685B78184600F061FA03461A467C
:104FA000FB685A73BB689B78184600F058FA0346B2
:104FB0001A46FB689A73FB68DB7B1846FB68597BD3
:104FC000FB689B7B1A4600F043FB03461A46FB68CE
:104FD0001A73FB681A7BBB681A70F86800F03BF91B
:104FE000F861FB69264AA2FB0323DB0A7B617B692C
:104FF000182B3AD97B69234AA2FB03231B09224AB7
:1050000002FB03F3FA69D31AFB61F969F86800F04F
:1050100052F90346002B07D0FB6804225A74FB6840
:1050200000221A74012327E0F86800F06BF9B861D8
:10503000BB69B3F1FF3F18D0BA69FB699A4214D239
:10504000BB6903F5A83303F5C073BB61B969F868A0
:1050500000F071F90346002B07D0FB6804225A7454
:10506000FB6800221A74012306E0FB6801225A74CF
:10507000FB6800221A74002318462037BD4680BD05
:10508000C5B3A291ABAAAAAA8051010090B589B07C
:1050900000AFF860B9607A600023FB6107F1140388
:1050A00000210A461A800A469A70FB68002B02D03B
:1050B000BB68002B01D1012399E0FB681B7C012B0D
:1050C00001D1022393E0FB6801221A74FB680222DB
:1050D0005A7407F1140300221946F868FFF748FED6
:1050E0000346002B01D0012381E03B7D1A464FF49B
:1050F000616303FB02F27B7D19460B461B015B1AC1
:105100009B001344BA7D1344BB617B68002B13D111
:10511000BB681B781A464FF4616303FB02F2BB685D
:105120005B7819460B461B015B1A9B001344BA6857
:1051300092781344FB611EE0BB681B78184600F0B0
:105140008EF903461A464FF4616303FB02F4BB6811
:105150005B78184600F083F903461A4613461B0194
:105160009B1A9B001C44BB689B78184600F077F99B
:1051700003462344FB61FA69BB699A4205D2FB6985
:1051800003F5A83303F5C073FB61F969F86800F013
:10519000D2F80346002B07D0FB6804225A74FB6840
:1051A00000221A74012322E0FB681B685A68FB681E
:1051B0001B6822F002025A60FB681B681A68FB68D1
:1051C0001B6842F002021A600B4B1B680A4A43F448
:1051D00000331360084B9B68074A43F40033936025
:1051E000FB6801225A74FB6800221A7400231846D7
:1051F0002437BD4690BD00BF0004014080B584B097
:1052000000AF78600023FB607B68002B01D1012395
:105210001DE07B681B685A687B681B6822F00802E7
:105220005A60FDF72FFCF86009E0FDF72BFC024601
:10523000FB68D31AB3F57A7F01D9032307E07B68B3
:105240001B685B6803F00803002BEED000231846B0
:105250001037BD4680BD80B487B000AF78600023B2
:105260007B8200233B820023FB8100237B617B68E0
:105270001B689B697B827B681B68DB69FB817B68A1
:105280001B689B693B827A8A3B8A9A4208D03B8A98
:105290001A047B681B68DB699BB213437B6104E0E3
:1052A0007B8A1A04FB8913437B617B6918461C3790
:1052B000BD4680BC704780B584B000AF786039606F
:1052C0000023FB73786800F05DF80346002B02D0E2
:1052D0000123FB7311E07B681B683A68120C9A612A
:1052E0007B681B683A6892B2DA61786800F072F8FD
:1052F0000346002B01D00123FB73FB7B18461037BC
:10530000BD4680BD80B485B000AF78600023FB81CE
:105310000023BB817B681B681B6AFB817B681B6861
:105320005B6ABB81FB891A04BB8913431846143797
:10533000BD4680BC704780B584B000AF78603960EE
:105340000023FB73786800F01DF80346002B02D0A1
:105350000123FB7311E07B681B683A68120C1A6228
:105360007B681B683A6892B25A62786800F032F83B
:105370000346002B01D00123FB73FB7B184610373B
:10538000BD4680BD80B584B000AF78600023FB606F
:10539000FDF778FBF86009E0FDF774FB0246FB6857
:1053A000D31AB3F57A7F01D903230FE07B681B681A
:1053B0005B6803F02003002BEED07B681B685A6803
:1053C0007B681B6842F010025A60002318461037B1
:1053D000BD4680BD80B584B000AF78600023FB601F
:1053E0007B681B685A687B681B6822F010025A6051
:1053F000FDF748FBF86009E0FDF744FB0246FB6857
:10540000D31AB3F57A7F01D9032307E07B681B68C1
:105410005B6803F02003002BEED000231846103702
:10542000BD4680BD80B485B000AF0346FB7100234C
:10543000FB6005E0FB680133FB60FB790A3BFB7115
:10544000FB79092BF6D8FB68DBB21B01DAB2FB79DA
:105450001343DBB218461437BD4680BC704780B496
:1054600085B000AF0346FB710023FB60FB791B098D
:10547000DBB21A4613469B0013445B00FB60FB79CA
:1054800003F00F03DAB2FB68DBB21344DBB2184659
:105490001437BD4680BC704780B586B000AF7860D9
:1054A000396000237B6100233B610023FB60002304
:1054B000BB607B68DB7B7B617B685B7B3B617B6884
:1054C0009B7BFB600023BB606FE03B69012B11D02D
:1054D0003B69032B0ED03B69052B0BD03B69072B97
:1054E00008D03B69082B05D03B690A2B02D03B69E9
:1054F0000C2B17D1FB681E2B03D8FB680133FB6014
:1055000050E03B690C2B05D03B6901333B61012323
:10551000FB6047E001233B610123FB607B690133B2
:105520007B613FE03B69042B08D03B69062B05D02B
:105530003B69092B02D03B690B2B0CD1FB681D2B5F
:1055400003D8FB680133FB602CE03B6901333B610E
:105550000123FB6026E03B69022B23D1FB681B2B58
:1055600003D8FB680133FB601CE0FB681C2B11D1E6
:105570007B699BB2184600F039F80346002B03D034
:10558000FB680133FB600DE03B6901333B610123A4
:10559000FB6007E0FB681D2B04D13B6901333B61D5
:1055A0000123FB60BB680133BB60BA683B689A4269
:1055B0008BD37B69DAB27B68DA733B69DAB27B68DA
:1055C0005A73FB68DAB27B689A733B69DBB2FA689C
:1055D000D2B21946786900F03BF803461A467B6858
:1055E0001A7300BF1837BD4680BD000080B483B079
:1055F00000AF0346FB80FB8803F003039BB2002B44
:1056000001D000231DE0FB88104AA2FB03125209BF
:10561000642101FB02F29B1A9BB2002B01D00123F3
:105620000FE0FB88094AA2FB0312D2094FF4C871AC
:1056300001FB02F29B1A9BB2002B01D1012300E077
:10564000002318460C37BD4680BC70471F85EB51C0
:1056500080B485B000AF78600B46FB701346BB701A
:105660000023BB600023FB607B6803F5FA63BB602B
:10567000FB78022B2DD8FA7813465B001344DB002D
:105680009B1A2C4AA2FB03235A08BB781A44BB6816
:105690001A44BB68013B9B081A44BB68013B26497E
:1056A000A1FB03135B09D21ABB68013B2249A1FB92
:1056B0000313DB0913441A1D204BA3FB0213D11A59
:1056C00049080B4499080B46DB005B1AD31AFB60B0
:1056D00029E0FA7813465B001344DB009B1A154A55
:1056E000A2FB03235A08BB781A44BB681A44BB6860
:1056F0009B081A44BB681049A1FB03135B09D21A2B
:10570000BB680D49A1FB0313DB0913449A1C0B4B27
:10571000A3FB0213D11A49080B4499080B46DB007E
:105720005B1AD31AFB60FB68DBB218461437BD4620
:1057300080BC7047398EE3381F85EB512549922490
:1057400080B582B000AF78607B681B681B6803F08F
:105750000103002B27D07B681B685B6803F0010303
:10576000002B20D07B681B685B6803F00403002BD0
:105770000BD0786800F01BF87B681B686FF00402A0
:105780005A607B6804225A7405E07868FCF78CFA4A
:105790007B6801225A747B681B685A687B681B68A7
:1057A00022F001025A6000BF0837BD4680BD80B4B8
:1057B00083B000AF786000BF0C37BD4680BC704737
:1057C00080B485B000AF786039600023FB600023AF
:1057D000BB60084BFB603B689B00FA681344FB60AE
:1057E000FB681B689BB2BB60BB6818461437BD469C
:1057F00080BC7047006C004080B582B000AF78601C
:105800007B68002B01D1012376E07B685B6A002B6B
:1058100008D17B685B68B3F5827F09D07B68002282
:10582000DA6105E07B6800221A617B6800225A6118
:105830007B6800229A627B6893F85130DBB2002BC0
:1058400006D17B68002283F850207868FCF71EFBA5
:105850007B68022283F851207B681B681A687B688A
:105860001B6822F040021A607B685B6803F4827256
:105870007B689B6803F404431A437B68DB6803F48A
:1058800000631A437B681B6903F002031A437B68B9
:105890005B6903F001031A437B689B6903F400739F
:1058A0001A437B68DB6903F038031A437B681B6A81
:1058B00003F0800342EA03017B689B6A03F4005211
:1058C0007B681B680A431A607B689B691A0C7B68BB
:1058D0001B6802F004025A607B681B68DA697B6807
:1058E0001B6822F40062DA617B6800225A657B68DB
:1058F000012283F85120002318460837BD4680BD99
:1059000080B582B000AF78607B68002B01D10123A5
:105910001AE07B68022283F851207B681B681A68B2
:105920007B681B6822F040021A607868FCF708FB6D
:105930007B6800225A657B68002283F851207B68CF
:10594000002283F85020002318460837BD4680BD4A
:1059500080B588B000AFF860B9603B601346FB804B
:10596000FDF790F8F861FB887B83FB6893F8513072
:10597000DBB2012B01D002232AE1BB68002B02D04D
:10598000FB88002B01D1012322E1FB6893F8503002
:10599000012B01D102231BE1FB68012283F8502077
:1059A000FB68032283F85120FB6800225A65FB68DC
:1059B000BA681A63FB68FA889A86FB68FA88DA86FE
:1059C000FB6800229A63FB6800229A87FB6800222A
:1059D000DA87FB6800225A64FB6800221A64FB68BD
:1059E0009B68B3F5004F0FD1FB681B681A68FB6812
:1059F0001B6822F040021A60FB681B681A68FB688B
:105A00001B6842F480421A60FB681B681B6803F045
:105A10004003402B07D0FB681B681A68FB681B68B3
:105A200042F040021A60FB68DB68B3F5006F52D1A8
:105A3000FB685B68002B02D07B8B012B45D1FB6898
:105A40001B6B1A88FB681B68DA60FB681B6B9A1C6F
:105A5000FB681A63FB68DB8E9BB2013B9AB2FB6862
:105A6000DA8632E0FB681B689B6803F00203022BB6
:105A700012D1FB681B6B1A88FB681B68DA60FB6835
:105A80001B6B9A1CFB681A63FB68DB8E9BB2013BA5
:105A90009AB2FB68DA8618E0FCF7F4FF0246FB696D
:105AA000D31A3A689A4203D83B68B3F1FF3F02D158
:105AB0003B68002B09D1FB68012283F85120FB6869
:105AC000002283F85020032382E0FB68DB8E9BB228
:105AD000002BC7D153E0FB685B68002B02D07B8BA7
