:020000040800F2
:1000000000500020B52F00086D240008752400085A
:100010007D240008852400088D24000800000000CD
:10002000000000000000000000000000952400080F
:10003000A124000800000000AD240008B924000835
:10004000FD2F0008FD2F0008FD2F0008C524000823
:10005000FD2F0008FD2F0008FD2F0008D9240008FF
:10006000FD2F0008FD2F0008FD2F0008E9240008DF
:10007000FD2F0008FD2F0008FD2F0008FD2F0008B0
:10008000FD2F0008FD2F0008FD2F0008FD2F0008A0
:10009000FD2F0008FD2F0008FD2F0008FD2400089B
:1000A000FD2F0008FD2F0008FD2F0008FD2F000880
:1000B000FD2F0008FD2F0008FD2F0008FD2F000870
:1000C000FD2F0008FD2F0008FD2F0008FD2F000860
:1000D000FD2F00080D250008FD2F0008FD2F00084A
:1000E000FD2F0008FD2F0008FD2F00080000000074
:1000F0000000000000000000000000000000000000
:0C01000000000000000000005FF808F1A3
:1001100010B5054C237833B9044B13B10448AFF341
:1001200000800123237010BD680000200000000043
:100130000885000808B5034B1BB103490348AFF31A
:10014000008008BD000000006C0000200885000849
:10015000034613F8012B002AFBD1181A0138704707
:1001600081F0004102E000BF83F0004330B54FEA68
:1001700041044FEA430594EA050F08BF90EA020FD5
:100180001FBF54EA000C55EA020C7FEA645C7FEA68
:10019000655C00F0E2804FEA5454D4EB5555B8BF8B
:1001A0006D420CDD2C4480EA020281EA030382EAFC
:1001B000000083EA010180EA020281EA0303362D8E
:1001C00088BF30BD11F0004F4FEA01314FF4801C61
:1001D0004CEA113102D0404261EB410113F0004F73
:1001E0004FEA03334CEA133302D0524263EB43032A
:1001F00094EA050F00F0A780A4F10104D5F1200EC8
:100200000DDB02FA0EFC22FA05F2801841F1000122
:1002100003FA0EF2801843FA05F359410EE0A5F1F6
:1002200020050EF1200E012A03FA0EFC28BF4CF027
:10023000020C43FA05F3C01851EBE37101F00045DD
:1002400007D54FF0000EDCF1000C7EEB00006EEBEA
:100250000101B1F5801F1BD3B1F5001F0CD3490874
:100260005FEA30004FEA3C0C04F101044FEA4452CB
:1002700012F5800F80F09A80BCF1004F08BF5FEA52
:10028000500C50F1000041EB045141EA050130BD32
:100290005FEA4C0C404141EB0101013C28BFB1F544
:1002A000801FE9D291F0000F04BF01460020B1FA8F
:1002B00081F308BF2033A3F10B03B3F120020CDA62
:1002C0000C3208DD02F1140CC2F10C0201FA0CF040
:1002D00021FA02F10CE002F11402D8BFC2F1200CA5
:1002E00001FA02F120FA0CFCDCBF41EA0C0190405B
:1002F000E41AA2BF01EB0451294330BD6FEA0404A4
:100300001F3C1CDA0C340EDC04F11404C4F120028E
:1003100020FA04F001FA02F340EA030021FA04F3A0
:1003200045EA030130BDC4F10C04C4F1200220FAF7
:1003300002F001FA04F340EA0300294630BD21FA35
:1003400004F0294630BD94F0000F83F4801306BFFB
:1003500081F480110134013D4EE77FEA645C18BFEF
:100360007FEA655C29D094EA050F08BF90EA020F86
:1003700005D054EA000C04BF1946104630BD91EA7E
:10038000030F1EBF0021002030BD5FEA545C05D181
:100390004000494128BF41F0004130BD14F58004C0
:1003A0003CBF01F5801130BD01F0004545F0FE4134
:1003B00041F470014FF0000030BD7FEA645C1ABF69
:1003C000194610467FEA655C1CBF0B46024650EAA0
:1003D000013406BF52EA033591EA030F41F40021CC
:1003E00030BD00BF90F0000F04BF0021704730B552
:1003F0004FF4806404F132044FF000054FF0000127
:1004000050E700BF90F0000F04BF0021704730B5E7
:100410004FF4806404F1320410F0004548BF4042BC
:100420004FF000013EE700BF42004FEAE2014FEA11
:1004300031014FEA02701FBF12F07F4393F07F4FEC
:1004400081F06051704732F07F4208BF704793F0EF
:100450007F4F04BF41F40021704730B54FF4607402
:1004600001F0004521F000411CE700BF50EA010205
:1004700008BF704730B54FF000050AE050EA0102AE
:1004800008BF704730B511F0004502D5404261EB1E
:1004900041014FF4806404F132045FEA915C3FF45F
:1004A000D8AE4FF003025FEADC0C18BF03325FEAFC
:1004B000DC0C18BF033202EBDC02C2F1200300FAAD
:1004C00003FC20FA02F001FA03FE40EA0E0021FAD2
:1004D00002F11444BDE600BF70B54FF0FF0C4CF4C0
:1004E000E06C1CEA11541DBF1CEA135594EA0C0F72
:1004F00095EA0C0F00F0DEF82C4481EA030621EAAD
:100500004C5123EA4C5350EA013518BF52EA0335E7
:1005100041F4801143F4801338D0A0FB02CE4FF099
:100520000005E1FB02E506F00042E0FB03E54FF0C9
:100530000006E1FB03569CF0000F18BF4EF0010EC1
:10054000A4F1FF04B6F5007F64F5407404D25FEABD
:100550004E0E6D4146EB060642EAC62141EA555170
:100560004FEAC52040EA5E504FEACE2EB4F1FD0CB2
:1005700088BFBCF5E06F1ED8BEF1004F08BF5FEA30
:10058000500E50F1000041EB045170BD06F00046E2
:1005900046EA010140EA020081EA0301B4EB5C048F
:1005A000C2BFD4EB0C0541EA045170BD41F4801187
:1005B0004FF0000E013C00F3AB8014F1360FDEBFAC
:1005C000002001F0004170BDC4F10004203C35DA88
:1005D0000C341BDC04F11404C4F1200500FA05F30B
:1005E00020FA04F001FA05F240EA020001F00042AC
:1005F00021F0004110EBD37021FA04F642EB060122
:100600005EEA430E08BF20EAD37070BDC4F10C044B
:10061000C4F1200500FA04F320FA05F001FA04F20F
:1006200040EA020001F0004110EBD37041F10001FB
:100630005EEA430E08BF20EAD37070BDC4F1200506
:1006400000FA05F24EEA020E20FA04F301FA05F26E
:1006500043EA020321FA04F001F0004121FA04F216
:1006600020EA020000EBD3705EEA430E08BF20EAE6
:10067000D37070BD94F0000F0FD101F00046400020
:1006800041EB010111F4801F08BF013CF7D041EAA2
:10069000060195F0000F18BF704703F000465200A6
:1006A00043EB030313F4801F08BF013DF7D043EA77
:1006B0000603704794EA0C0F0CEA135518BF95EA2D
:1006C0000C0F0CD050EA410618BF52EA4306D1D1B4
:1006D00081EA030101F000414FF0000070BD50EAD3
:1006E000410606BF1046194652EA430619D094EA5D
:1006F0000C0F02D150EA013613D195EA0C0F05D147
:1007000052EA03361CBF104619460AD181EA03019A
:1007100001F0004141F0FE4141F470014FF0000052
:1007200070BD41F0FE4141F4780170BD70B54FF0ED
:10073000FF0C4CF4E06C1CEA11541DBF1CEA13556D
:1007400094EA0C0F95EA0C0F00F0A7F8A4EB05044F
:1007500081EA030E52EA03354FEA013100F0888046
:100760004FEA03334FF0805545EA131343EA12630F
:100770004FEA022245EA111545EA10654FEA0026C4
:100780000EF000419D4208BF964244F1FD0404F57D
:10079000407402D25B084FEA3202B61A65EB0305D9
:1007A0005B084FEA32024FF480104FF4002CB6EB96
:1007B000020E75EB030E22BFB61A754640EA0C0016
:1007C0005B084FEA3202B6EB020E75EB030E22BF56
:1007D000B61A754640EA5C005B084FEA3202B6EB97
:1007E000020E75EB030E22BFB61A754640EA9C0056
:1007F0005B084FEA3202B6EB020E75EB030E22BF26
:10080000B61A754640EADC0055EA060E18D04FEAE3
:10081000051545EA16754FEA06164FEAC30343EA83
:1008200052734FEAC2025FEA1C1CC0D111F4801F50
:100830000BD141EA00014FF000004FF0004CB6E749
:1008400011F4801F04BF01430020B4F1FD0C88BFE8
:10085000BCF5E06F3FF6AFAEB5EB030C04BFB6EBF3
:10086000020C5FEA500C50F1000041EB045170BDE6
:100870000EF0004E4EEA113114EB5C04C2BFD4EB13
:100880000C0541EA045170BD41F480114FF0000E97
:10089000013C90E645EA060E8DE60CEA135594EA13
:1008A0000C0F08BF95EA0C0F3FF43BAF94EA0C0F16
:1008B0000AD150EA01347FF434AF95EA0C0F7FF48B
:1008C00025AF104619462CE795EA0C0F06D152EADF
:1008D00003353FF4FDAE1046194622E750EA4106C3
:1008E00018BF52EA43067FF4C5AE50EA41047FF4D4
:1008F0000DAF52EA43057FF4EBAE12E74A0011D286
:1009000012F5001211D20DD56FF47873B3EB625269
:100910000ED44FEAC12343F0004343EA505323FA75
:1009200002F070474FF00000704750EA013002D1EA
:100930004FF0FF3070474FF0000070474FEA410220
:10094000B2F1E04324BFB3F5001CDCF1FE5C0DD92D
:1009500001F0004C4FEAC0024CEA5070B2F1004F77
:1009600040EB830008BF20F00100704711F0804F7A
:1009700021D113F13872BCBF01F00040704741F43F
:1009800080114FEA5252C2F11802C2F1200C10FA43
:100990000CF320FA02F018BF40F001004FEAC12327
:1009A0004FEAD32303FA0CFC40EA0C0023FA02F3CB
:1009B0004FEA4303CCE77FEA625307D150EA0133A1
:1009C0001EBF4FF0FE4040F44000704701F0004071
:1009D00040F0FE4040F40000704700BF80F000404F
:1009E00002E000BF81F0004142001FBF5FEA410307
:1009F00092EA030F7FEA226C7FEA236C6AD04FEA07
:100A00001262D2EB1363C1BFD2184140484041404B
:100A1000B8BF5B42192B88BF704710F0004F40F4FD
:100A2000000020F07F4018BF404211F0004F41F419
:100A3000000121F07F4118BF494292EA030F3FD0E5
:100A4000A2F1010241FA03FC10EB0C00C3F12003F8
:100A500001FA03F100F0004302D5494260EB400087
:100A6000B0F5000F13D3B0F1807F06D340084FEAF2
:100A7000310102F10102FE2A51D2B1F1004F40EBE7
:100A8000C25008BF20F0010040EA0300704749004F
:100A900040EB0000013A28BFB0F5000FEDD2B0FAEC
:100AA00080FCACF1080CB2EB0C0200FA0CF0AABF0F
:100AB00000EBC25052421843BCBFD04018437047AD
:100AC00092F0000F81F4000106BF80F400000132B3
:100AD000013BB5E74FEA41037FEA226C18BF7FEA8A
:100AE000236C21D092EA030F04D092F0000F08BFCC
:100AF0000846704790EA010F1CBF0020704712F0B3
:100B00007F4F04D1400028BF40F00040704712F1F1
:100B100000723CBF00F50000704700F0004343F056
:100B2000FE4040F4000070477FEA226216BF08468C
:100B30007FEA23630146420206BF5FEA412390EA4F
:100B4000010F40F4800070474FF0000304E000BF45
:100B500010F0004348BF40425FEA000C08BF7047F6
:100B600043F0964301464FF000001CE050EA0102BA
:100B700008BF70474FF000030AE000BF50EA0102CF
:100B800008BF704711F0004302D5404261EB4101BC
:100B90005FEA010C02BF84460146002043F0B643E1
:100BA00008BFA3F18053A3F50003BCFA8CF2083A06
:100BB000A3EBC25310DB01FA02FC634400FA02FC0F
:100BC000C2F12002BCF1004F20FA02F243EB020016
:100BD00008BF20F00100704702F1200201FA02FC78
:100BE000C2F1200250EA4C0021FA02F243EB02006B
:100BF00008BF20EADC7070474FF0FF0C1CEAD052AF
:100C00001EBF1CEAD15392EA0C0F93EA0C0F6FD06F
:100C10001A4480EA010C400218BF5FEA41211ED04D
:100C20004FF0006343EA501043EA5111A0FB013139
:100C30000CF00040B1F5000F3EBF490041EAD3710E
:100C40005B0040EA010062F17F02FD2A1DD8B3F18A
:100C5000004F40EBC25008BF20F00100704790F0F9
:100C6000000F0CF0004C08BF49024CEA502040EA4B
:100C700051207F3AC2BFD2F1FF0340EAC250704711
:100C800040F400004FF00003013A5DDC12F1190F4F
:100C9000DCBF00F000407047C2F10002410021FAC1
:100CA00002F1C2F1200200FA02FC5FEA310040F1D9
:100CB000000053EA4C0308BF20EADC70704792F052
:100CC000000F00F0004C02BF400010F4000F013A8A
:100CD000F9D040EA0C0093F0000F01F0004C02BF85
:100CE000490011F4000F013BF9D041EA0C018FE7F4
:100CF0000CEAD15392EA0C0F18BF93EA0C0F0AD0FA
:100D000030F0004C18BF31F0004CD8D180EA01001F
:100D100000F00040704790F0000F17BF90F0004FB8
:100D2000084691F0000F91F0004F14D092EA0C0F9A
:100D300001D142020FD193EA0C0F03D14B0218BF2D
:100D4000084608D180EA010000F0004040F0FE4073
:100D500040F40000704740F0FE4040F4400070470F
:100D60004FF0FF0C1CEAD0521EBF1CEAD15392EA8E
:100D70000C0F93EA0C0F69D0A2EB030280EA010C7E
:100D800049024FEA402037D04FF0805343EA111117
:100D900043EA10130CF000408B4238BF5B0042F175
:100DA0007D024FF4000C8B4224BF5B1A40EA0C001A
:100DB000B3EB510F24BFA3EB510340EA5C00B3EB4C
:100DC000910F24BFA3EB910340EA9C00B3EBD10F3A
:100DD00024BFA3EBD10340EADC001B0118BF5FEA8C
:100DE0001C1CE0D1FD2A3FF650AF8B4240EBC250B5
:100DF00008BF20F0010070470CF0004C4CEA502076
:100E00007F32C2BFD2F1FF0340EAC250704740F4C4
:100E100000004FF00003013A37E792F0000F00F0B6
:100E2000004C02BF400010F4000F013AF9D040EA34
:100E30000C0093F0000F01F0004C02BF490011F4C8
:100E4000000F013BF9D041EA0C0195E70CEAD153C0
:100E500092EA0C0F08D142027FF47DAF93EA0C0FA7
:100E60007FF470AF084676E793EA0C0F04D14B028B
:100E70003FF44CAF08466EE730F0004C18BF31F03D
:100E8000004CCAD130F000427FF45CAF31F0004337
:100E90007FF43CAF5FE700BF42000ED2B2F1FE4FDD
:100EA0000BD34FF09E03B3EB126209D44FEA002339
:100EB00043F0004323FA02F070474FF00000704700
:100EC00012F1610F01D1420202D14FF0FF307047A1
:100ED0004FF00000704700BF53B94AB9002908BF5E
:100EE00000281CBF4FF0FF314FF0FF3000F068B911
:100EF000ADF1080C6DE904CE00F006F8DDF804E071
:100F0000DDE9022304B070472DE9F047089D0C4647
:100F1000002B4ED194468C458646B2FA82F262D9B5
:100F20004AB1C2F12003914020FA03F30CFA02FC0B
:100F3000194300FA02FE4FEA1C47B1FBF7F407FB26
:100F400014111FFA8CF64FEA1E4343EA014304FBD7
:100F500006F199420AD91CEB030304F1FF3080F03B
:100F60001081994240F20D81023C6344591AB1FB51
:100F7000F7F007FB101100FB06F61FFA8EF343EAA9
:100F800001439E420AD91CEB030300F1FF3180F0BC
:100F9000FA809E4240F2F7806344023800219B1B96
:100FA00040EA04401DB1D3400022C5E90032BDE84B
:100FB000F0878B4205D90DB1C5E900010021084633
:100FC000F5E7B3FA83F1002946D1A34202D3904258
:100FD000C0F0EE80861A64EB03030120002DE6D0FA
:100FE000C5E90063E3E7002A40F08F80A1EB0C0421
:100FF00001214FEA1C481FFA8CF7B4FBF8F608FBF6
:10100000164407FB06F04FEA1E4343EA04439842A6
:1010100008D91CEB030306F1FF3402D2984200F218
:10102000CB8026461C1AB4FBF8F008FB104400FBEA
:1010300007F71FFA8EF343EA04439F4208D91CEBDB
:10104000030300F1FF3402D29F4200F2AE8020463B
:10105000DB1B40EA0640A5E7C1F120078B4022FADE
:1010600007FC4CEA030C24FA07F64FEA1C49B6FBCE
:10107000F9F81FFA8CFE09FB186620FA07F38C407A
:1010800000FA01FA08FB0EF01C43230C43EA064366
:10109000984202FA01F20AD91CEB030308F1FF3669
:1010A00080F0818098427ED9A8F1020863441E1A1C
:1010B000B6FBF9F309FB136603FB0EFEA4B244EA88
:1010C0000644A64508D91CEB040403F1FF3066D2A0
:1010D000A64564D9023B644443EA0840A0FB02836E
:1010E000A4EB0E049C42C6461E4650D34DD055B1CB
:1010F000BAEB0E0364EB060404FA07F7CB401F4378
:10110000CC40C5E90074002151E70CFA02FCC2F1A1
:101110002003D9404FEA1C4820FA03F300FA02FEEC
:10112000B1FBF8F008FB101194401C431FFA8CF738
:10113000230C43EA014300FB07F1994208D91CEB59
:10114000030300F1FF362CD299422AD902386344B6
:101150005B1AB3FBF8F108FB1133A4B244EA034471
:1011600001FB07F3A34208D91CEB040401F1FF368D
:1011700013D2A34211D902396444E41A41EA00416E
:101180003BE70446F2E6084608E7C245AFD2B8EBB3
:10119000020E63EB0C060138A9E73146EDE7034682
:1011A0009AE73046D4E7B04681E7634402384FE718
:1011B00006462346084611E7023E634432E700BF75
:1011C000704700BF80B584B000AF3B1D00221A609D
:1011D0005A609A60204B214A1A601F4B4FF480726C
:1011E0009A601D4B01221A731B4B00221A751A4B71
:1011F0004FF46022DA61184B00225A60164B02222B
:101200001A61154801F082FF0346002B01D000F05F
:101210009BFF04237B600123BB600723FB603B1D16
:1012200019460D4802F090F90346002B01D000F05A
:101230008BFF05237B600223BB603B1D19460648DC
:1012400002F082F90346002B01D000F07DFF00BFC1
:101250001037BD4680BD00BF84000020002401403F
:1012600080B588B000AF786007F1100300221A60E3
:101270005A609A60DA607B681B68284A934249D1B9
:10128000274B9B69264A43F400739361244B9B6967
:1012900003F40073FB60FB68214B9B69204A43F019
:1012A000040393611E4B9B6903F00403BB60BB689E
:1012B00030233B6103237B6107F110031946194872
:1012C00003F042F9184B194A1A60174B00225A6072
:1012D000154B00229A60144B8022DA60124B4FF4B7
:1012E00080721A61104B4FF480625A610E4B2022BB
:1012F0009A610D4B0022DA610B4802F079FC03463B
:10130000002B01D000F020FF7B68074A1A62064AD2
:101310007B68536200BF2037BD4680BD002401407A
:101320000010024000080140B40000200800024004
:1013300080B59CB000AF786039600023FB6007F196
:10134000100360220021184606F04EFC07F10C0045
:101350003B687A68094906F027FC07F10C03184638
:10136000FEF7F6FE03469AB207F10C016423044827
:1013700005F0C9FD00BF7037BD4680BD2885000857
:101380000C03002080B582B000AF0C4B5B690B4AA8
:1013900043F001035361094B5B6903F001037B6078
:1013A0007B68002200210B2002F0D9FB0B2002F009
:1013B000F2FB00BF0837BD4680BD00BF00100240F1
:1013C00080B485B000AF78607B6803F17843FB6040
:1013D000FB689B0ABB60BB6818461437BD4680BCDF
:1013E00070470000B0B58AB000AFF860B96013462E
:1013F000FB8000237B6202F00DFFF868FFF7E0FF3F
:101400003862FB889B001A46FB681344FB61F8694D
:10141000FFF7D6FFB861204B00221A601E4AFB6816
:101420009360BA693B6AD31A9B0A01331A4AD360A4
:1014300007F114031946184802F0DEFF0346002B9B
:101440001FD002F01DFF034622E0BB681B6800228C
:101450001C46154622462B46F968022002F06AFE19
:101460000346002B09D1FB680433FB60BB680433DF
:10147000BB607B6A01337B6203E002F001FF03463D
:1014800006E0FB887A6A9A42DFDB02F0E9FE00237D
:1014900018462837BD46B0BDF800002080B588B09A
:1014A00000AF07F1100300221A605A609A60DA60F8
:1014B0004D4B9B694C4A43F0200393614A4B9B6917
:1014C00003F02003FB60FB68474B9B69464A43F0EF
:1014D00004039361444B9B6903F00403BB60BB6846
:1014E000414B9B69404A43F0080393613E4B9B6923
:1014F00003F008037B607B68012201213B4803F075
:101500007AFA00224FF24001384803F074FA0022C0
:101510004FF40141364803F06EFA80233B61354BAE
:101520007B610023BB6107F110031946304803F0CB
:101530000BF84FF201033B6101237B610023BB6188
:101540000223FB6107F110031946284802F0FCFF53
:1015500002233B61274B7B610223BB6107F1100330
:101560001946224802F0F0FF4FF480733B610123DB
:101570007B610023BB610223FB6107F11003194665
:101580001B4802F0E1FF4FF400433B6101237B6104
:101590000123BB610323FB6107F1100319461448C3
:1015A00002F0D2FF40233B6101237B610223BB6138
:1015B0000223FB6107F1100319460C4802F0C4FF37
:1015C00000220221072002F0CAFA072002F0E3FA03
:1015D00000220421172002F0C2FA172002F0DBFAE1
:1015E00000BF2037BD4680BD00100240000C014006
:1015F000000801400000111080B584B000AF034620
:10160000FB711C4AFB7913701A4B03225A70194B59
:1016100000229A70174B0022DA70164B00221A71C2
:10162000144B02225A710621124800F093FD034622
:10163000FB81FB89DAB20F4B9A71FB891B0A9BB2C3
:10164000DAB20C4BDA7101224FF480710A4803F0D0
:10165000D2F94FF47A7308220649084805F053FC82
:1016600000224FF48071044803F0C5F900BF103721
:10167000BD4680BDB801002000080140C402002022
:1016800080B500AF01F0BCFC00F078F8FFF706FF72
:10169000FFF778FE00F00AFE01F078FBFFF792FDFD
:1016A00000F08EFD01F09CFB01224FF40051304808
:1016B00003F0A1F9002201212D4803F09CF96420D8
:1016C00001F000FD02212B4804F0B4FD0346DAB21C
:1016D000294B1A70284B1B78002B08D14FF49672B7
:1016E0000321244804F08CFD234B04221A70224B62
:1016F0001B7803F00203002B02D000F0B9FA18E0C7
:101700001D4B1B7803F00403002B02D000F028FBD4
:101710000FE0194B1B7803F00803002B09D000F0F1
:101720001FFB06E0144B1B781A460221114804F0F7
:1017300067FD02210F4804F07DFD03460E4A127832
:101740009342EFD100224FF40051094803F053F9BE
:1017500001220121064803F04EF900F0BBF9642094
:1017600001F0B0FC4FF4617001F0ACFC00BFF6E793
:10177000000C0140500200202801002080B594B0E8
:1017800000AF07F1280328220021184606F02CFAA2
:1017900007F1140300221A605A609A60DA601A6135
:1017A0003B1D00221A605A609A60DA600923BB620E
:1017B0004FF48033FB6200233B630123BB630123AF
:1017C0003B6402237B644FF48033BB640023FB64DF
:1017D00007F12803184603F04BF90346002B01D00C
:1017E00000F0B2FC0F237B610223BB618023FB610D
:1017F0004FF480633B6200237B6207F114030021F6
:10180000184603F0B7FB0346002B01D000F09CFC08
:1018100003237B604FF40073BB600023FB603B1D20
:10182000184603F035FD0346002B01D000F08CFC78
:1018300000BF5037BD4680BD80B582B000AF786034
:101840000B467B80144BDB781B021AB2124B1B79C0
:101850001BB213431BB29AB2104B1A800E4B5B792A
:101860001B021AB20C4B9B791BB213431BB29AB2E8
:101870000A4B5A80094B1B881B04084A52881343A1
:101880001A46074B1A600F220349064805F0C6FBAB
:1018900000BF0837BD4680BDC0010020D001002038
:1018A000D4010020C402002080B584B000AF022221
:1018B0004F49504801F002FD0023FB600023BB604C
:1018C000142001F0FFFB0023FB7111E0484B1B8843
:1018D0001A46FB681344FB60454B5B881A46BB689D
:1018E0001344BB60012001F0EDFBFB790133FB7178
:1018F000FB79632BEAD9FB683F4AA2FB03235B0910
:10190000FB60F868FEF76EFD33A3D3E90023FEF712
:10191000E3FD02460B46104619464FF00002374BD6
:10192000FEF7DAFD02460B46104619462CA3D3E912
:101930000023FEF7FBFE02460B46104619462AA37B
:10194000D3E90023FEF712FC02460B462C49C1E9FD
:101950000023BB68284AA2FB03235B09BB60BB686A
:101960009AB2284B1A80B868FFF7EEF8034618467B
:10197000FEF75AFD18A3D3E90023FEF7ADFD02469A
:101980000B461046194616A3D3E90023FEF7CEFEF8
:1019900002460B46104619464FF000021A4BFEF75E
:1019A000E5FB02460B4610461946FEF7C7FF034605
:1019B000144A5360134B5B681846FEF735FD024628
:1019C0000B461249C1E900230A4801F055FD00BF4A
:1019D0001037BD4680BD00BF6666666666660A4013
:1019E0000000000000FEAF40E17A14AE47E1E23FA4
:1019F00018010020840000201F85EB5100001040DA
:101A0000080100201C0100200000044010010020FB
:101A100080B500AF01F0BAF9642001F053FB0F224A
:101A20002449254805F0FAFA01224FF48051234851
:101A300002F0E1FF4FF4E17001F044FB0120FFF7F9
:101A4000DBFD3C2001F03EFB1D4B1B681D4A934211
:101A500002D91B4B00221A60194B1B68002B19D0AE
:101A6000174B1B681846FFF76FF8034616491846D0
:101A7000FFF7C2F803464FF08B411846FFF770F9A5
:101A800003464FF07F511846FEF7AEFF03461A4655
:101A90000E4B1A600D4B1B680D4A936000224FF4E9
:101AA0008051064802F0A7FF034805F0FAF900BF8D
:101AB00080BD00BFC0010020C4020020000C014016
:101AC000D4010020D07E01000000C842D8010020CF
:101AD0001C01002080B584B000AF324B5B68314AF6
:101AE00043F48073536007F10C03012219462E481A
:101AF00003F05EFE0023BB603B1D07F10C02126881
:101B0000114619800233120C1A70284B1B78042BD3
:101B100004D17B790533DBB27B7110E0234B1B785A
:101B2000022B04D1BB790133DBB2BB7107E01F4B41
:101B30001B78082B03D1BB790133DBB2BB711A4B85
:101B40001B685A68184B1B6822F002025A603B1D42
:101B500001221946144803F0B9FF154B1B69144ABA
:101B600043F0040313610F4B1B680E4A43F002035A
:101B700013600C4B1B680B4A43F004031360094BC2
:101B80001B68084A43F008031360064B1B68054BAB
:101B90005B68084B00225A60BFF34F8F00BF30BF15
:101BA00000BFF9E70070004050020020280100202B
:101BB00000ED00E0002004E080B582B000AF00F04E
:101BC00053FD01F075FA7860122000F0A9FC03467D
:101BD000FB70FB781946122000F0E2FC234B002238
:101BE0001A7000F059FD00BF204B1B78DBB283F068
:101BF0000103DBB2002B06D001F05AFA02467B68E3
:101C0000D31A312BF0D9194B1B78DBB283F00103C7
:101C1000DBB2002B01D0002324E0122000F080FC76
:101C20000346FB70FB781946122000F0B9FC00F067
:101C30001BFDFB7803F00103002B06D0FB7803F0BB
:101C40000403002B01D000230CE0FB7803F0010318
:101C5000002B06D1FB7803F00403002B01D00123F5
:101C600000E0002318460837BD4680BD90010020E3
:101C700080B584B000AFFFF717FE052001F022FA0F
:101C800000F014FB642001F01DFA00F0FDFE4BF69D
:101C9000BB33BB804CF6AB23FB802A4B1B783B81CC
:101CA000294BD3E900014FF00002284BFEF714FC4A
:101CB00002460B4610461946FEF720FE03469BB22D
:101CC0007B810321224804F0B5FA03469BB2BB8115
:101CD000204B3A1D07CA03C31A801F4B00221A70FB
:101CE00009E01D4B1B78DBB20133DAB21A4B1A70D4
:101CF0006E2001F0E7F9FFF75FFF034683F0010371
:101D0000DBB2002B04D0144B1B78DBB2092BE8D9D3
:101D1000114B1B78DBB20A2B06D10A4B02221A7038
:101D20000E4804F027FB0AE00A210A4800F0F4FEFE
:101D300000F0D4F800F090FC084804F01BFB1037CA
:101D4000BD4680BD28010020080100200000594048
:101D5000500200202C010020B40100206402002069
:101D600090B585B000AFFFF79FFD052001F0AAF9FF
:101D7000FFF74EFE322001F0A5F900F097FA64203B
:101D800001F0A0F900F080FE44F64A233B804CF6B7
:101D9000AB237B80464B1B78BB80464BD3E90001CD
:101DA0004FF00002444BFEF797FB02460B461046ED
:101DB0001946FEF7A3FD03469BB2FB8003213F4873
:101DC00004F038FA03469BB23B813D4B5B683D49CA
:101DD0001846FEF711FF03461846FFF75DF8034665
:101DE0009BB27B81364B9B6836491846FEF704FF51
:101DF00003461846FFF750F803469BB2BB816422A6
:101E00000021314805F0F0FE2F4B1C463B460FCB1E
:101E100007C423802D4B00221A7009E02B4B1B783E
:101E2000DBB20133DAB2294B1A70962001F04AF97D
:101E3000FFF7C2FE034683F00103DBB2002B04D0A0
:101E4000224B1B78DBB2092BE8D9204B1B78DBB285
:101E50000A2B06D1164B08221A701D4804F08AFA84
:101E600022E00E21184800F057FE00F037F8104B22
:101E70001B78082B13D120220021164805F0B4FE50
:101E8000144B1C463B460FCB07C423800822114944
:101E90001148FFF7A7FA4FF4967001F013F900F01C
:101EA000DBFB0B4804F066FA1437BD4690BD00BF5B
:101EB00028010020080100200000594050020020A5
:101EC0001C010020000020412C010020B401002052
:101ED00064020020940100203030010880B584B0F5
:101EE00002AF7B4B00221A7000F06EFE01F0E0F8AA
:101EF0007860C9E0764B1B78DBB2002B00F0C48021
:101F000000230093734B744A7449754800F07EFEB9
:101F10000346002B40F0A980704B1B680A2B0BD1A5
:101F20000A226F496F4805F093FE6E4B1B8844F2FE
:101F30004442934215D10EE0654B00221A700020F6
:101F400000F094FD122000F0EBFA0346194612202F
:101F500000F026FB98E0634B5B884CF6AB22934283
:101F600005D05B4B00221A7000F02EFE8CE05E4B19
:101F70001B78022B20D15B4B1B89DBB2AB2B03D030
:101F8000594B02221A70A0E0564B1B891B0A9BB2C8
:101F9000DBB2AA2B03D1544B04221A705DE0514BE3
:101FA0001B891B0A9BB2DBB2552B56D14D4B9B882C
:101FB000DAB24D4B1A7050E04B4B1B78042B20D1FA
:101FC000484B1B89DBB2AB2B03D0474B08221A705E
:101FD0007BE0444B1B891B0A9BB2DBB2002B05D173
:101FE000404B9B88DAB2404B1A7036E03D4B1B8960
:101FF0001B0A9BB2DBB2FF2B2FD13B4B02221A7084
:102000002BE0394B1B78082B27D1364B1B89DBB2D1
:10201000AB2B03D0344B08221A7056E0314B1B898E
:10202000DBB2AB2B02D1304B04221A702D4B1B8933
:102030001B0A9BB2DBB2002B05D12A4B9B88DAB27C
:10204000294B1A7009E0274B1B891B0A9BB2DBB294
:10205000FF2B02D1244B02221A70224BDB881A4636
:102060000321224804F0CCF82FE0194B00221A700B
:10207000002000F0FBFC122000F052FA0346194643
:10208000122000F08DFA00BF01F012F802467B68C2
:10209000D31A41F2873293427FF62CAF124B1B7852
:1020A000022B03D1104B02221A700EE00E4B1B784C
:1020B000042B03D10C4B08221A7006E00A4B1B7844
:1020C000082B02D1084B08221A700837BD4680BD84
:1020D00090010020040000200000002040020020A9
:1020E000DC010020440200202801002050020020D2
:1020F00080B582B000AF0346FB80FB88022B11D174
:1021000002210A4802F060FC0346012B0AD1084B69
:102110001B78DBB283F00103DBB2002B02D0044B4F
:1021200001221A7000BF0837BD4680BD000C014077
:102130009001002080B582B000AF786001F047FDCB
:1021400000BF0837BD4680BD80B400AF72B600BF87
:1021500000BFFDE780B485B000AF78600B467B80A0
:10216000FF23FB73FF23BB7313E07B685A1C7A6069
:102170001A78BB7B5340DBB2BB600F4ABB68134489
:102180001A78FB7B5340BB730C4ABB6813441B7823
:10219000FB737B885A1E7A80002BE6D1FB7B1B02E7
:1021A0001AB2BB7B1BB213431BB29BB21846143747
:1021B000BD4680BC704700BFE8850008E88600087F
:1021C00080B582B000AF3B1D00210A461A800A4646
:1021D0009A7000233B601D4B1D4A1A601B4B4FF049
:1021E000FF325A60194B00229A60184803F0BCF97C
:1021F0000346002B01D0FFF7A7FF00233B7100230C
:102200007B710023BB713B1D012219460F4803F06F
:1022100037FA0346002B01D0FFF796FF01233B70EE
:1022200001237B700123BB700023FB703B4601221E
:102230001946064803F094FB0346002B01D0FFF734
:1022400083FF00BF0837BD4680BD00BF500200209D
:102250000028004080B584B000AF78607B681B68C0
:102260000F4A934218D102F0F7FB0E4BDB690D4A7F
:1022700043F00063D3610B4BDB6903F00063FB6049
:10228000FB68094B01221A6000220121032001F0A2
:1022900066FC032001F07FFC00BF1037BD4680BD07
:1022A00000280040001002403C04424280B500AFCC
:1022B000174B184A1A60164B4FF482725A60144B2F
:1022C00000229A60124B0022DA60114B00221A6140
:1022D0000F4B00225A610E4B4FF400729A610C4B67
:1022E0000022DA610A4B00221A62094B00225A626C
:1022F000074B00229A62064B0A22DA62044803F076
:10230000B5FF0346002B01D0FFF71EFF00BF80BDC5
:10231000640200200030014080B58AB000AF7860D0
:1023200007F1140300221A605A609A60DA607B6831
:102330001B68224A93423DD1214B9B69204A43F4BA
:10234000805393611E4B9B6903F480533B613B694F
:102350001B4B9B691A4A43F008039361184B9B6916
:1023600003F00803FB60FB6828237B610223BB6149
:1023700003233B6207F114031946124802F0E4F804
:1023800010237B610023BB610023FB6107F1140371
:1023900019460C4802F0D8F80B4B5B687B627B6AED
:1023A00043F0E0637B627B6A43F001037B62064A91
:1023B0007B6A536000BF2837BD4680BD00300140B6
:1023C00000100240000C01400000014080B582B0C6
:1023D00000AF78607B681B68084A934209D1084BBC
:1023E0009B69074A23F4805393613821054802F022
:1023F0002FFA00BF0837BD4680BD00BF0030014046
:1024000000100240000C014080B485B000AF154BB5
:102410009B69144A43F001039361124B9B6903F0DB
:102420000103BB60BB680F4BDB690E4A43F080536E
:10243000D3610C4BDB6903F080537B607B680A4BF4
:102440005B68FB60FB6823F0E063FB60FB6843F0C4
:102450000073FB60044AFB68536000BF1437BD463D
:1024600080BC7047001002400000014080B400AF03
:1024700000BFFDE780B400AF00BFFDE780B400AF50
:1024800000BFFDE780B400AF00BFFDE780B400AF40
:1024900000BFFDE780B400AF00BFBD4680BC704701
:1024A00080B400AF00BFBD4680BC704780B400AFB1
:1024B00000BFBD4680BC704780B500AF00F0E6FDB0
:1024C00000BF80BD80B500AF024803F059FE00BFD9
:1024D00080BD00BF5002002080B500AF022002F096
:1024E000A3FA00BF80BD000080B500AF024801F034
:1024F000EDFC00BF80BD00BFB400002080B500AF80
:10250000802002F091FA00BF80BD000080B500AFCE
:10251000024804F0E1FD00BF80BD00BFC4020020FE
:1025200080B584B000AF0346FB71FB7903F07F03F5
:10253000DBB2FB730023BB7300224FF4004116484B
:1025400002F059FA07F10F014FF47A730122134890
:1025500003F038FF00BF114804F03AFB0346012B9B
:10256000F9D107F10E014FF47A7301220B4804F000
:102570006DF800BF094804F02BFB0346012BF9D18D
:1025800001224FF40041044802F035FABB7B1846A3
:102590001037BD4680BD00BF000801406402002026
:1025A00080B584B000AF03460A46FB711346BB7189
:1025B000FB7963F07F03DBB2FB7300224FF4004131
:1025C000144802F018FA07F10F014FF47A73012250
:1025D000114803F0F7FE00BF0F4804F0F9FA034674
:1025E000012BF9D1B91D4FF47A7301220A4803F087
:1025F000E9FE00BF084804F0EBFA0346012BF9D1CD
:1026000001224FF40041034802F0F5F900BF1037F2
:10261000BD4680BD000801406402002080B500AFC7
:10262000002240210A4802F0E6F9322000F04AFD7B
:1026300001224021064802F0DEF9322000F042FD7E
:1026400001224FF40041034802F0D5F900BF80BDDC
:10265000000C01400008014080B500AF802101203E
:10266000FFF79EFF00BF80BD80B500AF8121012034
:10267000FFF796FF00BF80BD80B500AF8521012028
:10268000FFF78EFF00BF80BD80B500AF8321012022
:10269000FFF786FF00BF80BD80B500AF802000F04F
:1026A000E5F987210120FFF77BFF00BF80BD80B5E2
:1026B00082B000AF0346FB71FB7963F07F03DBB2AE
:1026C00019460920FFF76CFF00BF0837BD4680BDE3
:1026D00080B582B000AF0346FB71FB79062B06D9AB
:1026E000124B1B6812491846FEF722FE1AE0FB79CE
:1026F000002B04D104212620FFF752FF12E0002115
:102700002620FFF74DFF0C20FFF70AFF03465AB2C1
:10271000FB795B015BB213435BB2DBB219460C2061
:10272000FFF73EFF0837BD4680BD00BF0800002010
:102730003885000880B584B000AFC7E90001D7E94B
:1027400000234FF000004FF00001D90441EA52315C
:10275000D004184A4FF00003FEF7BEFB02460B46BA
:10276000C7E90223D7E902014FF000024FF000034E
:10277000020C42EA01420B0CD3B219460620FFF7C5
:102780000FFFD7E902014FF000024FF00003020AE9
:1027900042EA01620B0AD3B219460720FFF700FF95
:1027A0003B7A19460820FFF7FBFE00BF1037BD46F5
:1027B00080BD00BF0048E80180B584B000AF7860FC
:1027C0007B6841F67862934202DC0023FB603FE0C5
:1027D0007B6842F6A002934202DC0123FB6037E0F3
:1027E0007B6843F6F042934202DC0223FB602FE059
:1027F0007B6845F24012934202DC0323FB6027E032
:102800007B6847F61222934202DC0423FB601FE040
:102810007B684AF2E422934202DC0523FB6017E066
:102820007B684FF22442934202DC0623FB600FE0F8
:102830007B68124A934202DC0723FB6008E07B6856
:102840000F4A934202DC0823FB6001E00923FB608E
:102850001D20FFF765FE03465BB203F00F035AB27B
:10286000FB681B015BB213435BB2DBB219461D2050
:10287000FFF796FE00BF1037BD4680BD48E8010057
:1028800090D0030080B582B000AF0346FB71FB79A6
:10289000052B02D9FB790C2B06D9184B1B6818495C
:1028A0001846FEF745FD25E0FB79062B08D1C5212A
:1028B0003120FFF775FE0C213720FFF771FE07E08E
:1028C000C3213120FFF76CFE0A213720FFF768FE95
:1028D0001E20FFF725FE03465BB203F00F035AB23A
:1028E000FB791B015BB213435BB2DBB219461E20BE
:1028F000FFF756FE0837BD4680BD00BF0800002028
:102900004885000880B582B000AF0346FB71FB79B3
:10291000042B02D9FB79082B06D90F4B1B680F49F2
:102920001846FEF705FD14E0FB79043BFB711D2002
:10293000FFF7F6FD03465BB223F00E035AB2FB79B4
:102940005B005BB213435BB2DBB219461D20FFF79D
:1029500027FE0837BD4680BD0800002064850008BA
:1029600080B582B000AF03463960FB71FB79002B64
:102970000BD01D20FFF7D4FD034623F00103DBB28B
:1029800019461D20FFF70CFE10E01D20FFF7C8FDC3
:10299000034643F00103DBB219461D20FFF700FE9A
:1029A0003B68DBB219462220FFF7FAFD00BF08376B
:1029B000BD4680BD80B582B000AF0346FB71FB7998
:1029C000002B0BD01E20FFF7ABFD034643F00403A2
:1029D000DBB219461E20FFF7E3FD0AE01E20FFF7D9
:1029E0009FFD034623F00403DBB219461E20FFF7C8
:1029F000D7FD00BF0837BD4680BD80B582B000AFAF
:102A000078607B681B12DBB219462020FFF7C8FDF7
:102A10007B68DBB219462120FFF7C2FD00BF0837F3
:102A2000BD4680BD80B500AF1A20FFF779FD034693
:102A3000A43B184680BD000080B500AF1920FFF709
:102A40006FFD03465BB21846FDF7DCFC4FF0000259
:102A5000054BFDF741FD02460B4610461946FDF7B2
:102A60006DFF0346184680BD0000D03F80B582B0A0
:102A700000AF0346FB71FB7919464020FFF790FD3C
:102A800000BF0837BD4680BD80B500AFFFF7C6FD6B
:102A90004220FFF745FD03461A461D4B1A70FFF70B
:102AA000DBFD00210F20FFF77BFD00210E20FFF74B
:102AB00077FD08214020FFF773FD0020FFF708FE97
:102AC0000D20FFF7F4FD10A1D1E90001FFF732FE60
:102AD0001048FFF771FE0B20FFF7D4FE0520FFF72B
:102AE00011FF0C20FFF789FF00210120FFF738FFBD
:102AF0000120FFF75FFF0020FFF7B8FFFFF7B4FDED
:102B000000BF80BDAFF30080400ECF190000000071
:102B1000BC02002048E8010080B584B000AF7860B6
:102B20003960FFF7A1FD00210D20FFF739FD0021DD
:102B30002220FFF735FD0023FB600AE0FB687A687E
:102B400013441B7819460020FFF72AFDFB68013368
:102B5000FB60FA683B689A42F0DB3B68DBB21946DF
:102B60002220FFF71DFD00224FF40041154801F01F
:102B700042FF01224FF48041124801F03CFF012046
:102B800000F0A0FAFFF780FD02E00A2000F09AFAB8
:102B90001220FFF7C5FC034603F00803002BF4D016
:102BA0001220FFF7BDFC0346BB60BB68DBB21946D1
:102BB0001220FFF7F5FCFFF74FFD00BF1037BD46B1
:102BC00080BD00BF000C014080B500AFFFF74CFD99
:102BD0000020FFF74BFF00224FF480410A4801F02C
:102BE0000AFF01224FF40041074801F004FF1220C0
:102BF000FFF796FC034619461220FFF7D1FCFFF7BA
:102C00003BFD00BF80BD00BF000C014090B587B008
:102C100000AFF860B9607A603B60F868FDF798FA39
:102C200003461A460021F86804F0DEFF1220FFF781
:102C300077FC03463B613B69DBB219461220FFF784
:102C4000AFFC3B6903F04003002B07D12D4B1B6801
:102C50002D491846FEF76CFB02234FE03B6903F059
:102C60001003002B07D1274B1B6828491846FEF795
:102C70005FFB042342E03B6903F02003002B07D0F5
:102C8000204B1B6822491846FEF752FB032335E010
:102C90001320FFF745FC03461A46BB681A60FFF78E
:102CA000C1FE02467B681A60FFF7C6FE02463B681B
:102CB0001A601020FFF734FC034619460D20FFF779
:102CC0006FFC00237B610AE07B69FA68D41800205E
:102CD000FFF726FC034623707B6901337B61BB68E9
:102CE0001A687B699A42EFD897F8283083F001037D
:102CF000DBB2002B01D0FFF7B7FC002318461C37CE
:102D0000BD4690BD08000020788500089485000825
:102D1000B085000880B586B000AF7860144A154BC6
:102D2000D31A7B617B693B61134B1B68002B02D17B
:102D3000114B124A1A60104B1A687B6813443A69A7
:102D40009A4207D204F058FF03460C221A604FF053
:102D5000FF3309E0084B1B68FB60074B1A687B6870
:102D60001344054A1360FB6818461837BD4680BDFA
:102D70000050002000040000C0020020C004002019
:102D800080B400AF00BFBD4680BC704780B500AFC7
:102D9000114B124A1A60104B4FF416525A600E4BE8
:102DA00000229A600C4B0022DA600B4B00221A6161
:102DB000094B0C225A61084B00229A61064B0022F3
:102DC000DA61054804F01DF80346002B01D0FFF737
:102DD000BBF900BF80BD00BFC40200200038014025
:102DE00080B500AF114B124A1A60104B4FF4E1321C
:102DF0005A600E4B00229A600C4B0022DA600B4B9B
:102E000000221A61094B0C225A61084B00229A6178
:102E1000064B0022DA61054803F0F3FF0346002B5E
:102E200001D0FFF791F900BF80BD00BF0C03002067
:102E30000044004080B58AB000AF786007F1180305
:102E400000221A605A609A60DA607B681B683B4A0D
:102E500093423AD13A4B9B69394A43F48043936198
:102E6000374B9B6903F480437B617B69344B9B69DF
:102E7000334A43F004039361314B9B6903F004032D
:102E80003B613B694FF40073BB610223FB61032389
:102E90007B6207F1180319462A4801F055FB4FF4ED
:102EA0008063BB610023FB6100233B6207F11803D1
:102EB0001946244801F048FB00220121252000F09A
:102EC0004EFE252000F067FE34E07B681B681E4A3A
:102ED00093422FD11A4BDB69194A43F40033D36173
:102EE000174BDB6903F40033FB60FB68144B9B69F1
:102EF000134A43F004039361114B9B6903F00403ED
:102F0000BB60BB680423BB610223FB6103237B62BC
:102F100007F1180319460B4801F016FB0823BB61A3
:102F20000023FB6100233B6207F1180319460548A3
:102F300001F00AFB00BF2837BD4680BD00380140C4
:102F400000100240000801400044004080B582B0FB
:102F500000AF78607B681B68124A93420ED1124B17
:102F60009B69114A23F4804393614FF4C0610F4879
:102F700001F06EFC252000F01CFE0EE07B681B6853
:102F80000B4A934209D1084BDB69074A23F400330B
:102F9000D3610C21054801F05BFC00BF0837BD463A
:102FA00080BD00BF00380140001002400008014011
:102FB00000440040FFF7E4FE0B480C490C4A002394
:102FC00002E0D458C4500433C4188C42F9D3094ADF
:102FD000094C002301E013600432A242FBD304F049
:102FE00011FEFEF74DFB7047000000206800002036
:102FF0006C88000868000020C0040020FEE7000084
:1030000080B500AF084B1B68074A43F010031360FC
:10301000032000F099FD0F2000F008F8FFF7F4F905
:103020000023184680BD00BF0020024080B582B05A
:1030300000AF7860124B1A68124B1B7819464FF498
:103040007A73B3FBF1F3B2FBF3F3184600F0C3FD60
:103050000346002B01D001230EE07B680F2B0AD81A
:10306000002279684FF0FF3000F079FD064A7B6856
:103070001360002300E0012318460837BD4680BDD9
:103080000C000020140000201000002080B400AFCD
:10309000054B1B781A46054B1B681344034A136003
:1030A00000BFBD4680BC70471400002054030020C0
:1030B00080B400AF024B1B681846BD4680BC704709
:1030C0005403002080B584B000AF7860FFF7F0FFB4
:1030D000B8607B68FB60FB68B3F1FF3F05D00A4B2B
:1030E0001B781A46FB681344FB6000BFFFF7E0FF44
:1030F0000246BB68D31AFA689A42F7D800BF00BFED
:103100001037BD4680BD00BF1400002080B586B0DA
:1031100000AF78600023FB7500233B610023BB6098
:103120000023FB607B68002B01D10123BEE07B689C
:103130009B68002B7B689B6A002B09D17B6800226F
:10314000DA627B68002283F824207868FEF788F82A
:10315000786800F04BFB0346FB757B689B6A03F0C5
:103160001003002B40F09980FB7D002B40F09580F0
:103170007B689B6A23F4885323F0020343F0020226
:103180007B689A627B685A687B68DB691A437B6854
:103190001B7B5B001343BA681343BB607B689B686F
:1031A000B3F5807F03D07B689B68012B02D14FF47D
:1031B000807300E000233A6913433B617B681B7D09
:1031C000012B19D17B681B7B002B09D17B689B6984
:1031D000013B5A033B69134343F400633B610BE03B
:1031E0007B689B6A43F020027B689A627B68DB6A9B
:1031F00043F001027B68DA627B681B685B6823F43A
:1032000069417B681B683A690A435A607B681B689E
:103210009A68284B13407A681268B9680B43936028
:103220007B689B68B3F5807F03D07B689B68012B2C
:1032300004D17B681B69013B1B05FB607B681B6835
:10324000DB6A23F470017B681B68FA680A43DA6260
:103250007B681B689A68184B1340BA689A420BD176
:103260007B680022DA627B689B6A23F0030343F0E9
:1032700001027B689A6218E07B689B6A23F0120364
:1032800043F010027B689A627B68DB6A43F00102BC
:103290007B68DA620123FB7507E07B689B6A43F079
:1032A00010027B689A620123FB75FB7D1846183774
:1032B000BD4680BDFDF7E1FFFE0E1FFF80B586B065
:1032C00000AFF860B9607A600023FB75FB681B688B
:1032D000644A934204D0FB681B68634A934206D158
:1032E000604B5B6803F47023002B40F0B380FB68F5
:1032F00093F82430012B01D10223AEE0FB680122B8
:1033000083F82420F86800F017FA0346FB75FB7D6C
:10331000002B40F09A80FB689B6A23F4706323F0D3
:10332000010343F48072FB689A62FB681B684E4A93
:10333000934205D14B4B5B6803F47023002B15D1EE
:10334000FB689B6A23F48012FB689A62FB681B6827
:103350005B6803F48063002B26D0FB689B6A23F430
:10336000405343F48052FB689A621DE0FB689B6AFD
:1033700043F48012FB689A62FB681B68394A9342E7
:1033800004D0FB681B68384A93420DD1354B5B680B
:1033900003F48063002B07D0FB689B6A23F440533F
:1033A00043F48052FB689A62FB689B6A03F4805383
:1033B000002B06D0FB68DB6A23F00602FB68DA62AA
:1033C00002E0FB680022DA62FB68002283F8242016
:1033D000FB681B6A254A9A62FB681B6A244ADA6208
:1033E000FB681B6A234A1A63FB681B686FF00202C2
:1033F0001A60FB681B689A68FB681B6842F480725D
:103400009A60FB68186AFB681B684C331946BA68F7
:103410007B6800F047FCFB681B689B6803F4602333
:10342000B3F5602F08D1FB681B689A68FB681B68BE
:1034300042F4A0029A600FE0FB681B689A68FB6880
:103440001B6842F480129A6006E0FB68002283F851
:10345000242001E00123FB75FB7D18461837BD468B
:1034600080BD00BF00240140002801406F380008E3
:10347000EB3800080739000880B584B000AF7860E9
:103480000023FB737B6893F82430012B01D10223C6
:103490003AE07B68012283F82420786800F0A6F9DE
:1034A0000346FB73FB7B002B29D17B681B689A6862
:1034B0007B681B6822F480729A607B681B6A93F8B1
:1034C0002130DBB2022B1AD17B681B6A184600F050
:1034D00049FC0346FB73FB7B002B0AD17B689B6A8C
:1034E00023F4885323F0010343F001027B689A62BE
:1034F00005E07B689B6A43F040027B689A627B68C8
:10350000002283F82420FB7B18461037BD4680BD7F
:1035100080B483B000AF786000BF0C37BD4680BC7C
:10352000704780B483B000AF786000BF0C37BD46F1
:1035300080BC704780B483B000AF786000BF0C37A8
:10354000BD4680BC7047000080B485B000AF786095
:1035500039600023FB730023BB607B6893F8243041
:10356000012B01D10223DCE07B68012283F82420B7
:103570003B685B68062B1CD87B681B68596B3B68F3
:103580005A6813469B001344053B1F2202FA03F3BB
:10359000DB4319403B6818683B685A6813469B0038
:1035A0001344053B00FA03F27B681B680A435A6325
:1035B0003CE03B685B680C2B1CD87B681B68196B74
:1035C0003B685A6813469B001344233B1F2202FAB0
:1035D00003F3DB4319403B6818683B685A6813469D
:1035E0009B001344233B00FA03F27B681B680A43E9
:1035F0001A631BE07B681B68D96A3B685A681346EC
:103600009B001344413B1F2202FA03F3DB431940A2
:103610003B6818683B685A6813469B001344413B5B
:1036200000FA03F27B681B680A43DA623B681B6896
:10363000092B1CD97B681B68D9683B681A6813463C
:103640005B0013441E3B072202FA03F3DB431940DD
:103650003B6898683B681A6813465B0013441E3B3E
:1036600000FA03F27B681B680A43DA6019E07B68A2
:103670001B6819693B681A6813465B0013440722EC
:1036800002FA03F3DB4319403B6898683B681A6809
:1036900013465B00134400FA03F27B681B680A437D
:1036A0001A613B681B68102B03D03B681B68112B09
:1036B00032D17B681B681D4A934225D17B681B6809
:1036C0009B6803F40003002B26D17B681B689A6873
:1036D0007B681B6842F400029A603B681B68102BF1
:1036E0001AD1134B1B68134AA2FB03239A0C1346EF
:1036F0009B0013445B00BB6002E0BB68013BBB6006
:10370000BB68002BF9D107E07B689B6A43F020027D
:103710007B689A620123FB737B68002283F8242074
:10372000FB7B18461437BD4680BC7047002401401F
:103730000C00002083DE1B4380B584B000AF7860AE
:103740000023FB600023BB607B681B689B6803F061
:103750000103012B40D07B681B689A687B681B685B
:1037600042F001029A601F4B1B681F4AA2FB032311
:103770009B0CBB6002E0BB68013BBB60BB68002BDD
:10378000F9D1FFF795FCF8601FE0FFF791FC0246C6
:10379000FB68D31A022B18D97B681B689B6803F05F
:1037A0000103012B11D07B689B6A43F010027B68F8
:1037B0009A627B68DB6A43F001027B68DA627B68AD
:1037C000002283F82420012307E07B681B689B68A4
:1037D00003F00103012BD8D1002318461037BD4652
:1037E00080BD00BF0C00002083DE1B4380B584B089
:1037F00000AF78600023FB607B681B689B6803F068
:103800000103012B2ED17B681B689A687B681B68BB
:1038100022F001029A60FFF74BFCF8601BE0FFF713
:1038200047FC0246FB68D31A022B14D97B681B683D
:103830009B6803F00103012B0DD17B689B6A43F069
:1038400010027B689A627B68DB6A43F001027B6846
:10385000DA62012307E07B681B689B6803F00103C1
:10386000012BDCD0002318461037BD4680BD80B543
:1038700084B000AF78607B685B6AFB60FB689B6A22
:1038800003F05003002B27D1FB689B6A43F40072BE
:10389000FB689A62FB681B689B6803F46023B3F5BE
:1038A000602F15D1FB681B7B002B11D1FB689B6A35
:1038B00023F48072FB689A62FB689B6A03F480536E
:1038C000002B05D1FB689B6A43F00102FB689A62FA
:1038D000F868FFF71DFE04E0FB681B6A1B6B786845
:1038E000984700BF1037BD4680BD80B584B000AF9B
:1038F00078607B685B6AFB60F868FFF712FE00BFC8
:103900001037BD4680BD80B584B000AF78607B685D
:103910005B6AFB60FB689B6A43F04002FB689A624B
:10392000FB68DB6A43F00402FB68DA62F868FFF7C1
:1039300001FE00BF1037BD4680BD000080B485B0D9
:1039400000AF78607B6803F00703FB600C4BDB681B
:10395000BB60BA684FF6FF031340BB60FB681A02F6
:10396000BB68134343F0BF6343F40033BB60044AB6
:10397000BB68D36000BF1437BD4680BC704700BF32
:1039800000ED00E080B400AF044BDB681B0A03F0DD
:1039900007031846BD4680BC704700BF00ED00E03D
:1039A00080B483B000AF0346FB7197F90730002B5A
:1039B0000BDBFB7903F01F02064997F907305B091F
:1039C000012000FA02F241F8232000BF0C37BD4667
:1039D00080BC704700E100E080B483B000AF0346D4
:1039E000FB7197F90730002B12DBFB7903F01F0204
:1039F0000A4997F907305B09012000FA02F22033E7
:103A000041F82320BFF34F8F00BFBFF36F8F00BF7C
:103A100000BF0C37BD4680BC704700BF00E100E02E
:103A200080B483B000AF03463960FB7197F907306B
:103A3000002B0ADB3B68DAB20C4997F90730120118
:103A4000D2B20B4483F800230AE03B68DAB208499B
:103A5000FB7903F00F03043B1201D2B20B441A7638
:103A600000BF0C37BD4680BC704700BF00E100E0DE
:103A700000ED00E080B489B000AFF860B9607A6012
:103A8000FB6803F00703FB61FB69C3F10703042B29
:103A900028BF0423BB61FB690433062B02D9FB69F1
:103AA000033B00E000237B614FF0FF32BB6902FA69
:103AB00003F3DA43BB681A407B699A404FF0FF3149
:103AC0007B6901FA03F3D9437B680B401343184623
:103AD0002437BD4680BC704780B400AFBFF34F8F22
:103AE00000BF064BDB6803F4E0620449044B134358
:103AF000CB60BFF34F8F00BF00BFFDE700ED00E0DC
:103B00000400FA0580B582B000AF78607B68013BA5
:103B1000B3F1807F01D301230FE00A4A7B68013BA8
:103B200053600F214FF0FF30FFF77AFF054B002263
:103B30009A60044B07221A60002318460837BD46D6
:103B400080BD00BF10E000E080B582B000AF7860BB
:103B50007868FFF7F3FE00BF0837BD4680BD80B52B
:103B600086B000AF0346B9607A60FB7300237B61C7
:103B7000FFF708FF78617A68B9687869FFF77AFF1C
:103B8000024697F90F3011461846FFF749FF00BF6C
:103B90001837BD4680BD80B582B000AF0346FB71CB
:103BA00097F907301846FFF7FBFE00BF0837BD4600
:103BB00080BD80B582B000AF0346FB7197F9073036
:103BC0001846FFF709FF00BF0837BD4680BD80B526
:103BD00000AFFFF781FF80B582B000AF78607868F2
:103BE000FFF790FF034618460837BD4680BD00002A
:103BF00080B485B000AF78600023FB607B68002B49
:103C000001D1012343E07B681B681A46224B134411
:103C1000224AA2FB03231B099A007B681A647B6873
:103C20001F4ADA637B68022283F821207B681B68C5
:103C30001B68FB60FB6823F47F5323F03003FB60B9
:103C40007B685A687B689B681A437B68DB681A4309
:103C50007B681B691A437B685B691A437B689B69B5
:103C60001A437B68DB691343FA681343FB607B6884
:103C70001B68FA681A607B6800229A637B680122DD
:103C800083F821207B68002283F820200023184637
:103C90001437BD4680BC7047F8FFFDBFCDCCCCCCFF
:103CA0000000024080B586B000AFF860B9607A606D
:103CB0003B600023FB75FB6893F82030012B01D19A
:103CC00002234BE0FB68012283F82020FB6893F875
:103CD0002130DBB2012B3AD1FB68022283F821208C
:103CE000FB6800229A63FB681B681A68FB681B6804
:103CF00022F001021A603B687A68B968F86800F03F
:103D0000EBF9FB68DB6A002B08D0FB681B681A68BC
:103D1000FB681B6842F00E021A600FE0FB681B682C
:103D20001A68FB681B6822F004021A60FB681B68B3
:103D30001A68FB681B6842F00A021A60FB681B687D
:103D40001A68FB681B6842F001021A6005E0FB6814
:103D5000002283F820200223FB75FB7D18461837CC
:103D6000BD4680BD80B485B000AF78600023FB7392
:103D70007B6893F82130DBB2022B08D07B680422E9
:103D80009A637B68002283F82020012320E07B686F
:103D90001B681A687B681B6822F00E021A607B6839
:103DA0001B681A687B681B6822F001021A607B6836
:103DB0001A6C7B68DB6B012101FA02F25A607B68A6
:103DC000012283F821207B68002283F82020FB7BDE
:103DD00018461437BD4680BC7047000080B584B0DB
:103DE00000AF78600023FB737B6893F82130DBB26F
:103DF000022B05D07B6804229A630123FB7351E0F8
:103E00007B681B681A687B681B6822F00E021A60C8
:103E10007B681B681A687B681B6822F001021A60C5
:103E20007B681B68224A934229D07B681B68214A21
:103E3000934222D07B681B681F4A93421AD07B684A
:103E40001B681E4A934212D07B681B681C4A93422F
:103E50000AD07B681B681B4A934202D14FF480133F
:103E60000EE04FF080730BE04FF4803308E04FF426
:103E7000805305E04FF4807302E0102300E001233B
:103E8000114A53607B68012283F821207B6800225D
:103E900083F820207B685B6B002B03D07B685B6B17
:103EA00078689847FB7B18461037BD4680BD00BF39
:103EB000080002401C000240300002404400024062
:103EC000580002406C0002400000024080B584B0FF
:103ED00000AF78607B68DB6B1B68FB607B681B68EE
:103EE0001B68BB607B681B6C04229A40FB68134014
:103EF000002B4FD0BB6803F00403002B4AD07B6833
:103F00001B681B6803F02003002B07D17B681B682C
:103F10001A687B681B6822F004021A607B681B68C1
:103F2000664A934229D07B681B68654A934222D037
:103F30007B681B68634A93421AD07B681B68624A9D
:103F4000934212D07B681B68604A93420AD07B6818
:103F50001B685F4A934202D14FF480030EE04FF09A
:103F600080630BE04FF4802308E04FF4804305E0CA
:103F70004FF4806302E0402300E00423554A53607D
:103F80007B68DB6A002B00F094807B68DB6A7868D2
:103F900098478EE07B681B6C02229A40FB681340B6
:103FA000002B56D0BB6803F00203002B51D07B6876
:103FB0001B681B6803F02003002B0BD17B681B6878
:103FC0001A687B681B6822F00A021A607B6801226B
:103FD00083F821207B681B68384A934229D07B688C
:103FE0001B68374A934222D07B681B68354A93424C
:103FF0001AD07B681B68344A934212D07B681B68D6
:10400000324A93420AD07B681B68314A934202D1FC
:104010004FF400130EE04FF000730BE04FF4003349
:1040200008E04FF4005305E04FF4007302E0202352
:1040300000E00223274A53607B68002283F8202097
:104040007B689B6A002B34D07B689B6A78689847B2
:104050002FE07B681B6C08229A40FB681340002B02
:1040600028D0BB6803F00803002B23D07B681B68B3
:104070001A687B681B6822F00E021A607B681A6C53
:104080007B68DB6B012101FA02F25A607B68012236
:104090009A637B68012283F821207B68002283F8E1
:1040A00020207B681B6B002B04D07B681B6B78681F
:1040B000984700BF00BF1037BD4680BD08000240D2
:1040C0001C00024030000240440002405800024000
:1040D0006C0002400000024080B485B000AFF86080
:1040E000B9607A603B60FB681A6CFB68DB6B01218E
:1040F00001FA02F25A60FB681B683A685A60FB6872
:104100005B68102B08D1FB681B687A689A60FB68B3
:104110001B68BA68DA6007E0FB681B68BA689A60D7
:10412000FB681B687A68DA6000BF1437BD4680BC44
:1041300070470000F0B587B000AFF860B960C7E91C
:1041400000230123FB750023BB7500237B752F4BD8
:104150001B7E012B01D1022354E02C4B01221A7645
:104160004CF2503000F0B2F80346FB75FB7D002B9B
:1041700044D1FB68012B02D101237B7507E0FB686A
:10418000022B02D102237B7501E004237B750023FF
:10419000BB752DE0BB7D5A00BB6802EB030CBB7DF9
:1041A0001901D7E90023C1F12006A1F1200022FA6C
:1041B00001F403FA06F6344323FA00F0044323FA29
:1041C00001F5A3B21946604600F064F84CF2503095
:1041D00000F07CF80346FB750D4B1B690C4A23F07D
:1041E00001031361FB7D002B07D1BB7D0133BB7540
:1041F000BA7D7B7D9A42CDD300E000BF034B002205
:104200001A76FB7D18461C37BD46F0BD58030020CA
:104210000020024080B483B000AF0023FB710D4B3F
:104220001B6903F08003002B0DD00A4B0A4A5A6029
:10423000084B0A4A5A60074B1B6903F08003002BA6
:1042400001D00123FB71FB7918460C37BD4680BCB9
:10425000704700BF0020024023016745AB89EFCDC6
:1042600080B400AF054B1B69044A43F0800313611F
:1042700000231846BD4680BC704700BF00200240A6
:1042800080B400AF024BDB691846BD4680BC704766
:104290005803002080B483B000AF78600B467B8069
:1042A000084B0022DA61084B1B69074A43F00103FF
:1042B00013617B687A881A8000BF0C37BD4680BCCA
:1042C000704700BF580300200020024080B584B032
:1042D00000AF7860FEF7ECFEF86010E07B68B3F1A9
:1042E000FF3F0CD07B68002B07D0FEF7E1FE0246B3
:1042F000FB68D31A7A689A4201D2032325E0154B52
:10430000DB6803F00103002BE8D1124BDB6803F0FC
:104310002003002B02D00F4B2022DA600D4BDB680C
:1043200003F01003002B0BD10A4BDB6903F00103F0
:10433000002B05D1074BDB6803F00403002B03D0EF
:1043400000F00AF8012300E0002318461037BD46AC
:1043500080BD00BF0020024080B483B000AF0023C6
:104360007B60234BDB6803F01003002B09D0214B4B
:10437000DB6943F002031F4AD3617B6843F01003FB
:104380007B601B4BDB6803F00403002B09D0194B47
:10439000DB6943F00103174AD3617B6843F00403F0
:1043A0007B60134BDB6903F00103002B0BD0114B37
:1043B000DB6943F004030F4AD3610D4BDB690C4A00
:1043C00023F00103D3617B6840F20112934206D1CE
:1043D000074BDB69064A23F00103D36102E0044A7C
:1043E0007B68D36000BF0C37BD4680BC704700BF00
:1043F000002002405803002080B584B000AF7860F0
:1044000039600123FB730023BB602F4B1B7E012B04
:1044100001D1022353E02C4B01221A767B681B68E2
:10442000022B16D14CF25030FFF750FF0346002B01
:1044300041D1012000F04CF84CF25030FFF746FF1C
:104440000346FB73214B1B69204A23F004031361CD
:1044500031E04CF25030FFF739FF0346002B2AD1F0
:104460003B684FF0FF321A607B689B68BB6019E0C5
:10447000B86800F049F84CF25030FFF727FF0346C8
:10448000FB73124B1B69114A23F002031361FB7B80
:10449000002B03D03B68BA681A600CE0BB6803F5D8
:1044A0008063BB607B68DB689A027B689B6813440F
:1044B000BA689A42DCD3044B00221A76FB7B18467A
:1044C0001037BD4680BD00BF5803002000200240C9
:1044D00080B483B000AF7860094B0022DA61094BE9
:1044E0001B69084A43F004031361064B1B69054A24
:1044F00043F04003136100BF0C37BD4680BC7047DA
:10450000580300200020024080B483B000AF7860E0
:104510000B4B0022DA610B4B1B690A4A43F0020382
:104520001361084A7B685361064B1B69054A43F0D7
:104530004003136100BF0C37BD4680BC704700BF0D
:10454000580300200020024080B48BB000AF786098
:10455000396000237B6200233B6269E101227B6AB0
:1045600002FA03F3FB613B681B68FA691340BB6105
:10457000BA69FB699A4240F058813B685B689A4A85
:1045800093425ED0984A934275D8984A934258D045
:10459000964A93426FD8964A934252D0944A934295
:1045A00069D8944A93424CD0924A934263D8924A33
:1045B000934246D0904A93425DD8122B2AD8122BB0
:1045C00059D801A252F823F0434600081D460008BE
:1045D0002F46000871460008774600087746000815
:1045E00077460008774600087746000877460008B7
:1045F00077460008774600087746000877460008A7
:1046000077460008774600087746000825460008E8
:1046100039460008794A934213D02CE03B68DB68A6
:104620003B6229E03B68DB6804333B6224E03B6883
:10463000DB6808333B621FE03B68DB680C333B629E
:104640001AE03B689B68002B02D104233B6213E015
:104650003B689B68012B05D108233B627B68FA69A4
:104660001A6109E008233B627B68FA695A6103E03A
:1046700000233B6200E000BFBB69FF2B01D87B68D1
:1046800001E07B6804337B61BB69FF2B02D87B6A46
:104690009B0002E07B6A083B9B003B617B691A68D8
:1046A0000F213B6901FA03F3DB431A40396A3B6986
:1046B00001FA03F31A437B691A603B685B6803F0F5
:1046C0008053002B00F0B1804D4B9B694C4A43F066
:1046D000010393614A4B9B6903F00103BB60BB6814
:1046E000484A7B6A9B08023352F82330FB607B6A9E
:1046F00003F003039B000F2202FA03F3DB43FA6883
:104700001340FB607B68404A934213D07B683F4A6A
:1047100093420DD07B683E4A934207D07B683D4A66
:10472000934201D1032306E0042304E0022302E0C4
:10473000012300E000237A6A02F003029200934012
:10474000FA681343FB602F497B6A9B080233FA68BF
:1047500041F823203B685B6803F48013002B06D0EC
:104760002D4B9A682C49BB6913438B6006E02A4B9A
:104770009A68BB69DB43284913408B603B685B68E0
:1047800003F40013002B06D0234BDA682249BB69DF
:104790001343CB6006E0204BDA68BB69DB431E495C
:1047A0001340CB603B685B6803F40033002B06D0FA
:1047B000194B5A681849BB6913434B6006E0164B06
:1047C0005A68BB69DB43144913404B603B685B6824
:1047D00003F48033002B21D00F4B1A680E49BB69BC
:1047E00013430B6021E000BF0000321000003110C5
:1047F0000000221000002110000012100000111013
:10480000001002400000014000080140000C01407F
:104810000010014000140140000401400B4B1A68D5
:10482000BB69DB43094913400B607B6A01337B6240
:104830003B681A687B6A22FA03F3002B7FF48EAE82
:1048400000BF00BF2C37BD4680BC7047000401404C
:1048500080B489B000AF786039600023FB619AE0D2
:104860000122FB6902FA03F33A681340BB61BB699A
:10487000002B00F08D804E4AFB699B08023352F8F2
:1048800023307B61FB6903F003039B000F2202FAD4
:1048900003F37A6913407B617B68464A934213D0E5
:1048A0007B68454A93420DD07B68444A934207D0C7
:1048B0007B68434A934201D1032306E0042304E0CA
:1048C000022302E0012300E00023FA6902F0030260
:1048D000920093407A699A4232D13A4B1A68BB6986
:1048E000DB43384913400B60364B5A68BB69DB43E6
:1048F000344913404B60334BDA68BB69DB433149C1
:104900001340CB602F4B9A68BB69DB432D491340A2
:104910008B60FB6903F003039B000F2202FA03F391
:104920007B61234AFB699B08023352F823107B69A1
:10493000DA431F48FB699B080A40023340F82320F2
:10494000BB69FF2B01D87B6801E07B6804333B61C6
:10495000BB69FF2B02D8FB699B0002E0FB69083BA7
:104960009B00FB603B691A680F21FB6801FA03F3A7
:10497000DB431A400421FB6801FA03F31A433B6945
:104980001A607B68DA68BB69DB431A407B68DA60CF
:10499000FB690133FB613A68FB6922FA03F3002BE0
:1049A0007FF45EAF00BF00BF2437BD4680BC7047B8
:1049B0000000014000080140000C014000100140CF
:1049C000001401400004014080B485B000AF78605D
:1049D0000B467B807B689A687B881340002B02D053
:1049E0000123FB7301E00023FB73FB7B18461437A4
:1049F000BD4680BC704780B483B000AF78600B4682
:104A00007B8013467B707B78002B03D07A887B6891
:104A10001A6103E07B881A047B681A6100BF0C37B7
:104A2000BD4680BC7047000080B582B000AF034631
:104A3000FB80084B5A69FB881340002B06D0054ABF
:104A4000FB885361FB881846FDF752FB00BF08370F
:104A5000BD4680BD0004014080B400AF034B01227D
:104A60001A6000BFBD4680BC704700BF20000E42E8
:104A700080B586B000AF78607B68002B01D1012340
:104A800072E27B681B6803F00103002B00F0878053
:104A9000924B5B6803F00C03042B0CD08F4B5B68CC
:104AA00003F00C03082B12D18C4B5B6803F48033AA
:104AB000B3F5803F0BD1894B1B6803F40033002B07
:104AC0006CD07B685B68002B68D101234CE27B686B
:104AD0005B68B3F5803F06D1804B1B687F4A43F487
:104AE000803313602EE07B685B68002B0CD17B4B1E
:104AF0001B687A4A23F480331360784B1B68774A2B
:104B000023F4802313601DE07B685B68B3F5A02F5E
:104B10000CD1724B1B68714A43F4802313606F4BB6
:104B20001B686E4A43F4803313600BE06B4B1B68C9
:104B30006A4A23F480331360684B1B68674A23F486
:104B4000802313607B685B68002B13D0FEF7B0FAFC
:104B5000386108E0FEF7ACFA02463B69D31A642BD1
:104B600001D9032300E25D4B1B6803F40033002BE3
:104B7000F0D014E0FEF79CFA386108E0FEF798FAEE
:104B800002463B69D31A642B01D90323ECE1534B52
:104B90001B6803F40033002BF0D100E000BF7B68FA
:104BA0001B6803F00203002B63D04C4B5B6803F0DF
:104BB0000C03002B0BD0494B5B6803F00C03082B54
:104BC0001CD1464B5B6803F48033002B16D1434B5A
:104BD0001B6803F00203002B05D07B681B69012BC7
:104BE00001D00123C0E13D4B1B6823F0F8027B6834
:104BF0005B69DB00394913430B603AE07B681B6952
:104C0000002B20D0364B01221A60FEF751FA386192
:104C100008E0FEF74DFA02463B69D31A022B01D990
:104C20000323A1E12D4B1B6803F00203002BF0D0FE
:104C30002A4B1B6823F0F8027B685B69DB0027497D
:104C400013430B6015E0264B00221A60FEF730FA82
:104C5000386108E0FEF72CFA02463B69D31A022BB2
:104C600001D9032380E11D4B1B6803F00203002BD5
:104C7000F0D17B681B6803F00803002B3AD07B68F7
:104C80009B69002B19D0174B01221A60FEF710FA0E
:104C9000386108E0FEF70CFA02463B69D31A022B92
:104CA00001D9032360E10D4B5B6A03F00203002B83
:104CB000F0D0012000F0CEFA1CE00A4B00221A606E
:104CC000FEF7F6F938610FE0FEF7F2F902463B69AC
:104CD000D31A022B08D9032346E100BF001002407B
:104CE0000000424280044242924B5B6A03F002039E
:104CF000002BE9D17B681B6803F00403002B00F054
:104D0000A6800023FB758B4BDB6903F08053002BDF
:104D10000DD1884BDB69874A43F08053D361854BC3
:104D2000DB6903F08053BB60BB680123FB75824BDA
:104D30001B6803F48073002B18D17F4B1B687E4ADD
:104D400043F480731360FEF7B3F9386108E0FEF7AF
:104D5000AFF902463B69D31A642B01D9032303E15F
:104D6000754B1B6803F48073002BF0D07B68DB6805
:104D7000012B06D16F4B1B6A6E4A43F0010313628D
:104D80002DE07B68DB68002B0CD16A4B1B6A694AFB
:104D900023F001031362674B1B6A664A23F0040386
:104DA00013621CE07B68DB68052B0CD1614B1B6A2E
:104DB000604A43F0040313625E4B1B6A5D4A43F092
:104DC000010313620BE05B4B1B6A5A4A23F0010399
:104DD0001362584B1B6A574A23F0040313627B6823
:104DE000DB68002B15D0FEF763F938610AE0FEF7A7
:104DF0005FF902463B69D31A41F28832934201D9E6
:104E00000323B1E04B4B1B6A03F00203002BEED0EF
:104E100014E0FEF74DF938610AE0FEF749F9024661
:104E20003B69D31A41F28832934201D903239BE0B4
:104E3000404B1B6A03F00203002BEED1FB7D012BDC
:104E400005D13C4BDB693B4A23F08053D3617B683F
:104E5000DB69002B00F08780364B5B6803F00C03A6
:104E6000082B61D07B68DB69022B46D1334B0022D3
:104E70001A60FEF71DF9386108E0FEF719F90246DD
:104E80003B69D31A022B01D903236DE0294B1B6820
:104E900003F00073002BF0D17B681B6AB3F5803FF1
:104EA00008D1244B5B6823F400327B689B6821495E
:104EB00013434B601F4B5B6823F474127B68196AC1
:104EC0007B685B6A0B431B4913434B601B4B0122FE
:104ED0001A60FEF7EDF8386108E0FEF7E9F80246DF
:104EE0003B69D31A022B01D903233DE0114B1B6808
:104EF00003F00073002BF0D035E0104B00221A6055
:104F0000FEF7D6F8386108E0FEF7D2F802463B69B2
:104F1000D31A022B01D9032326E0064B1B6803F0AA
:104F20000073002BF0D11EE07B68DB69012B07D1F9
:104F3000012319E00010024000700040600042426E
:104F40000B4B5B68FB60FB6803F480327B681B6A79
:104F50009A4206D1FB6803F470127B685B6A9A423E
:104F600001D0012300E0002318461837BD4680BD5C
:104F70000010024080B584B000AF786039607B6873
:104F8000002B01D10123D0E06A4B1B6803F007031B
:104F90003A689A4210D9674B1B6823F007026549AB
:104FA0003B6813430B60634B1B6803F007033A68CD
:104FB0009A4201D00123B8E07B681B6803F002032A
:104FC000002B20D07B681B6803F00403002B05D066
:104FD000594B5B68584A43F4E06353607B681B6835
:104FE00003F00803002B05D0534B5B68524A43F48F
:104FF00060535360504B5B6823F0F0027B689B6802
:105000004D4913434B607B681B6803F00103002B81
:1050100040D07B685B68012B07D1474B1B6803F4CA
:105020000033002B15D101237FE07B685B68022BE6
:1050300007D1414B1B6803F00073002B09D10123FA
:1050400073E03D4B1B6803F00203002B01D10123E9
:105050006BE0394B5B6823F003027B685B68364981
:1050600013434B60FEF724F8F8600AE0FEF720F8DF
:105070000246FB68D31A41F28832934201D90323D6
:1050800053E02D4B5B6803F00C027B685B689B0070
:105090009A42EBD1274B1B6803F007033A689A4208
:1050A00010D2244B1B6823F0070222493B681343AC
:1050B0000B60204B1B6803F007033A689A4201D04B
:1050C000012332E07B681B6803F00403002B08D047
:1050D000194B5B6823F4E0627B68DB681649134375
:1050E0004B607B681B6803F00803002B09D0124B50
:1050F0005B6823F460527B681B69DB000E49134335
:105100004B6000F021F802460B4B5B681B0903F073
:105110000F030A49CB5C22FA03F3094A1360094BD7
:105120001B681846FDF782FF002318461037BD465E
:1051300080BD00BF0020024000100240E887000848
:105140000C0000201000002080B487B000AF0023C6
:10515000FB600023BB6000237B6100237B60002396
:105160003B611E4B5B68FB60FB6803F00C03042B88
:1051700002D0082B03D027E0194B3B6127E0FB68E6
:105180009B0C03F00F03174AD35C7B60FB6803F4AE
:105190008033002B10D0114B5B685B0C03F00103D4
:1051A000114AD35CBB607B680D4A03FB02F2BB680B
:1051B000B2FBF3F37B6104E07B680C4A02FB03F370
:1051C0007B617B693B6102E0054B3B6100BF3B6952
:1051D00018461C37BD4680BC704700BF0010024017
:1051E00000127A00008800081088000800093D00BD
:1051F00080B400AF024B1B681846BD4680BC7047A8
:105200000C00002080B500AFFFF7F2FF0246054B0F
:105210005B681B0A03F007030349CB5C22FA03F324
:10522000184680BD00100240F887000880B500AF26
:10523000FFF7DEFF0246054B5B68DB0A03F007035E
:105240000349CB5C22FA03F3184680BD00100240EC
:10525000F887000880B485B000AF78600A4B1B68FF
:105260000A4AA2FB03235B0A7A6802FB03F3FB6092
:1052700000BFFB685A1EFA60002BF9D100BF00BFC7
:105280001437BD4680BC70470C000020D34D62101F
:1052900080B586B000AF786000233B610023FB60DF
:1052A0007B681B6803F00103002B7DD00023FB7596
:1052B0004F4BDB6903F08053002B0DD14C4BDB6966
:1052C0004B4A43F08053D361494BDB6903F0805371
:1052D000BB60BB680123FB75464B1B6803F48073FE
:1052E000002B18D1434B1B68424A43F48073136070
:1052F000FDF7DEFE386108E0FDF7DAFE02463B69A5
:10530000D31A642B01D903236DE03A4B1B6803F4D5
:105310008073002BF0D0364B1B6A03F44073FB60A4
:10532000FB68002B2ED07B685B6803F44073FA683F
:105330009A4227D02E4B1B6A23F44073FB602E4BFE
:1053400001221A602C4B00221A60294AFB68136262
:10535000FB6803F00103002B14D0FDF7A9FE3861B0
:105360000AE0FDF7A5FE02463B69D31A41F28832F6
:10537000934201D9032336E01D4B1B6A03F002035D
:10538000002BEED01A4B1B6A23F440727B685B68DB
:10539000174913430B62FB7D012B05D1144BDB69CD
:1053A000134A23F08053D3617B681B6803F0020328
:1053B000002B08D00E4B5B6823F440427B689B684F
:1053C0000B4913434B607B681B6803F01003002BF1
:1053D00008D0074B5B6823F480027B68DB680449D4
:1053E00013434B60002318461837BD4680BD00BFED
:1053F00000100240007000404004424280B588B076
:1054000000AF786000237B610023FB6100233B61D8
:105410000023FB600023BB617B68102B0AD07B68F4
:10542000102B00F28A807B68012B45D07B68022B11
:1054300075D082E0464B5B68FB60454B1B6803F010
:105440008073002B7BD0FB689B0C03F00F03414A59
:10545000D35C3B61FB6803F48033002B15D03C4BDD
:105460005B685B0C03F001033B4AD35C7B61FB6828
:1054700003F48033002B0DD0384A7B69B2FBF3F282
:105480003B6902FB03F3FB6104E03B69344A02FB26
:1054900003F3FB612E4B5B6803F48003B3F5800FCD
:1054A00002D1FB69BB614AE0FB695B002D4AA2FBAC
:1054B00003235B08BB6142E0254B1B6AFB60FB6872
:1054C00003F44073B3F5807F08D1FB6803F0020357
:1054D000002B03D04FF40043BB611FE0FB6803F4D3
:1054E0004073B3F5007F09D1194B5B6A03F00203E7
:1054F000002B03D049F64043BB610FE0FB6803F487
:105500004073B3F5407F1CD1114B1B6803F400338B
:10551000002B16D04FF22443BB6112E011E0FFF7DD
:1055200085FE02460A4B5B689B0B03F003030133C5
:105530005B00B2FBF3F3BB6104E000BF02E000BF1D
:1055400000E000BFBB6918462037BD4680BD00BFE4
:1055500000100240148800082488000800127A0015
:1055600000093D00ABAAAAAA80B584B000AF78605C
:105570000023FB607B68002B01D101237AE07B686C
:105580005B7CDBB2002B05D17B6800221A74786843
:10559000FCF760FE7B6802225A74786800F04EFBCC
:1055A0000346002B04D07B6804225A74012361E077
:1055B000786800F007FC0346002B04D07B680422C7
:1055C0005A74012356E07B681B685A687B681B6825
:1055D00022F007025A607B689B68002B05D0274B9E
:1055E0001B6B264A23F001031363244BDB6A23F46D
:1055F00060727B689B6821491343CB627B685B6860
:10560000B3F1FF3F03D07B685B68FB600EE00120D5
:10561000FFF7F4FEF860FB68002B04D17B680422DE
:105620005A74012326E0FB68013BFB60FB681A0CFF
:105630007B681B6802F00F029A607B681B68FA683F
:1056400092B2DA60786800F0E5FB0346002B04D0E4
:105650007B6804225A7401230CE07B680022DA7311
:105660007B6801225A737B6801229A737B6801224E
:105670005A74002318461037BD4680BD006C0040A8
:1056800090B587B000AFF860B9607A6000237B61A5
:1056900000233B61FB68002B02D0BB68002B01D1CB
:1056A000012380E0FB681B7C012B01D102237AE0FF
:1056B000FB6801221A74FB6802225A747B68002B73
:1056C00013D1BB681B781A464FF4616303FB02F2E7
:1056D000BB685B7819460B461B015B1A9B001344A1
:1056E000BA68927813447B611EE0BB681B78184649
:1056F00000F0D5FB03461A464FF4616303FB02F446
:10570000BB685B78184600F0CAFB03461A4613468E
:105710001B019B1A9B001C44BB689B78184600F039
:10572000BEFB034623447B617969F86800F0E3FA25
:105730000346002B07D0FB6804225A74FB68002242
:105740001A7401232FE0FB681B685A68FB681B680A
:1057500022F005025A60F86800F0F4FA38613B69FB
:10576000B3F1FF3F18D03A697B699A4214D23B6982
:1057700003F5A83303F5C0733B613969F86800F09D
:10578000FAFA0346002B07D0FB6804225A74FB6820
:1057900000221A74012306E0FB6801225A74FB6898
:1057A00000221A74002318461C37BD4690BD000025
:1057B00080B588B000AFF860B9607A600023BB6143
:1057C0000023FB6100237B6100233B61FB68002B0E
:1057D00002D0BB68002B01D10123B5E0FB681B6838
:1057E0005B6803F00403002B01D00123ACE0F868F0
:1057F00000F051FAB861BB69554AA2FB0323DB0AEA
:105800003B61BA69524BA3FB0213DB0A4FF461619F
:1058100001FB03F3D31A4F4AA2FB03235B09DAB25D
:10582000BB685A70BB694A4AA2FB0312D20A4FF402
:10583000616101FB02F29A1A464BA3FB021359095C
:105840000B461B015B1A9B00D11ACAB2BB689A7047
:105850003B69172B55D93B693F4AA2FB03231B0920
:105860007B6139693C4BA3FB01231A0913465B009A
:105870001344DB00CA1AD2B2BB681A70F86800F091
:1058800061FAF861FB69B3F1FF3F08D0FA69BB69BF
:105890009A4204D9FA69BB69D31AFB6102E04FF05E
:1058A000FF33FB617B692D4A02FB03F3BA69D31A0C
:1058B000BB61B969F86800F01EFA0346002B01D0FD
:1058C000012341E0FB69B3F1FF3F0CD0FA69BB69EA
:1058D0001344FB61F969F86800F04DFA0346002BA8
:1058E0000AD0012330E0F969F86800F044FA034671
:1058F000002B01D0012327E07969F86800F0ECFA69
:1059000003E03B69DAB2BB681A707B68002B1AD0DF
:10591000BB681B78184600F0A5FA03461A46BB6818
:105920001A70BB685B78184600F09CFA03461A466A
:10593000BB685A70BB689B78184600F093FA034620
:105940001A46BB689A70002318462037BD4680BDB2
:10595000C5B3A29189888888ABAAAAAA8051010000
:1059600080B588B000AFF860B9607A600023FB6151
:105970000023BB6100237B61FB68002B02D0BB6866
:10598000002B01D1012397E0FB681B7C012B01D187
:10599000022391E0FB6801221A74FB6802225A7408
:1059A0007B68002B0CD1BB68DA78FB68DA73BB68C4
:1059B0005A78FB685A73BB689A78FB689A731AE046
:1059C000BB68DB78184600F06AFA03461A46FB68A3
:1059D000DA73BB685B78184600F061FA03461A4632
:1059E000FB685A73BB689B78184600F058FA034668
:1059F0001A46FB689A73FB68DB7B1846FB68597B89
:105A0000FB689B7B1A4600F043FB03461A46FB6883
:105A10001A73FB681A7BBB681A70F86800F03BF9D0
:105A2000F861FB69264AA2FB0323DB0A7B617B69E1
:105A3000182B3AD97B69234AA2FB03231B09224A6C
:105A400002FB03F3FA69D31AFB61F969F86800F005
:105A500052F90346002B07D0FB6804225A74FB68F6
:105A600000221A74012327E0F86800F06BF9B8618E
:105A7000BB69B3F1FF3F18D0BA69FB699A4214D2EF
:105A8000BB6903F5A83303F5C073BB61B969F86856
:105A900000F071F90346002B07D0FB6804225A740A
:105AA000FB6800221A74012306E0FB6801225A7485
:105AB000FB6800221A74002318462037BD4680BDBB
:105AC000C5B3A291ABAAAAAA8051010090B589B032
:105AD00000AFF860B9607A600023FB6107F114033E
